:020000040800F2
:1000000000000220DD0D0008AD030008AF0300086A
:10001000B1030008B3030008B503000800000000A6
:10002000000000000000000000000000B70300080E
:10003000B903000800000000BB030008BD0300086E
:100040002D0E00082D0E00082D0E00082D0E0008A4
:100050002D0E00082D0E00082D0E00082D0E000894
:100060002D0E00082D0E00082D0E00082D0E000884
:100070002D0E00082D0E00082D0E00082D0E000874
:100080002D0E00082D0E00082D0E00082D0E000864
:100090002D0E00082D0E00082D0E00082D0E000854
:1000A0002D0E00082D0E00082D0E00082D0E000844
:1000B0002D0E00082D0E00082D0E00082D0E000834
:1000C0002D0E00082D0E00082D0E00082D0E000824
:1000D0002D0E00082D0E00082D0E00082D0E000814
:1000E0002D0E00082D0E00082D0E00082D0E000804
:1000F0002D0E00082D0E00082D0E00082D0E0008F4
:100100002D0E00082D0E00082D0E00082D0E0008E3
:100110002D0E00082D0E00082D0E00082D0E0008D3
:100120002D0E00082D0E00082D0E00082D0E0008C3
:100130002D0E00082D0E00082D0E00082D0E0008B3
:100140002D0E00082D0E00082D0E00082D0E0008A3
:100150002D0E00082D0E00082D0E00082D0E000893
:100160002D0E00082D0E00082D0E00082D0E000883
:100170002D0E00082D0E00082D0E000800000000B6
:080180002D0E00082D0E0008F1
:1001880053B94AB9002908BF00281CBF4FF0FF31F6
:100198004FF0FF3000F00CB8ADF1080C6DE904CE5B
:1001A80000F028FFDDF804E0DDE9022304B0704721
:1001B800704700BF0348044B834202D0034B03B18E
:1001C80018477047100000201000002000000000B1
:1001D8000548064B1B1AD90F01EBA301491002D0A1
:1001E800034B03B11847704710000020100000208F
:1001F8000000000010B5064C237843B9FFF7DAFF7A
:10020800044B13B10448AFF300800123237010BDE1
:100218001000002000000000B812000808B5054BC7
:100228001BB105490548AFF30080BDE80840FFF75A
:10023800CFBF00BF0000000014000020B812000863
:1002480000B58BB0002201921A4B196B41F00401E2
:100258001963196B01F00401019101990292196B5C
:1002680041F080011963196B01F080010291029934
:100278000392196B41F001011963196B01F0010137
:10028800039103990492196B41F0020119631B6BE6
:1002980003F002030493049B4FF4D86305930123EE
:1002A80006930792089205A9034800F0C1FB0BB01A
:1002B8005DF804FB003802400000024072B6FEE719
:1002C80000B595B03022002108A800F0ADFD00234C
:1002D800039304930593069307930193204A116CA3
:1002E80041F080511164126C02F080520192019A1F
:1002F80002931C4B1A6842F480421A601B6803F48C
:1003080080430293029B012308934FF4803309939F
:1003180002230E934FF480020F9204221092A82217
:10032800119212930723139308A800F067F898B95D
:100338000F23039302230493002305934FF4A05340
:1003480006934FF480530793052103A800F0C0FAE1
:1003580020B915B05DF804FBFFF7B0FFFFF7AEFF5B
:10036800003802400070004010B500F0F1FCFFF7C3
:10037800A7FFFFF765FF4021094800F04FFC02E0A6
:100388000133002BFCDC064C8021204600F046FCA3
:100398004021204600F042FC41F28833F1E700BFDB
:1003A80000000240FEE7FEE7FEE7FEE7FEE77047D3
:1003B8007047704708B500F0E5FC012000F0FEFC2E
:1003C80008BD000082B0002100910B4B5A6C42F42A
:1003D80080425A645A6C02F480420092009A019159
:1003E8001A6C42F080521A641B6C03F0805301931C
:1003F800019B02B0704700BF00380240002800F09F
:10040800E08170B582B00446036813F0010F3BD059
:100418009F4B9B6803F00C03042B2CD09C4B9B68D0
:1004280003F00C03082B21D06368B3F5803F4FD04D
:10043800B3F5A02F52D0964B1A6822F480321A6076
:100448001A6822F480221A606368002B50D000F0EA
:10045800A5FC05468E4B1B6813F4003F14D100F031
:100468009DFC401B6428F5D90320B1E1884B5B68EB
:1004780013F4800FD8D0864B1B6813F4003F03D0C9
:100488006368002B00F09F81236813F0020F54D09B
:100498007F4B9B6813F00C0F3ED07D4B9B6803F09D
:1004A8000C03082B33D0E368002B68D0794B01226A
:1004B8001A6000F073FC0546754B1B6813F0020FB9
:1004C80054D100F06BFC401B0228F5D903207FE1D2
:1004D8006F4A136843F480331360B5E76C4B1A68AE
:1004E80042F480221A601A6842F480321A60ABE73C
:1004F80000F054FC0546664B1B6813F4003FC3D05C
:1005080000F04CFC401B6428F5D9032060E1604BE7
:100518005B6813F4800FC6D15D4B1B6813F0020FA4
:1005280003D0E368012B40F05081594A136823F047
:10053800F803216943EAC1031360236813F0080F25
:1005480042D063696BB3534B0122C3F8802E00F08D
:1005580025FC05464E4B5B6F13F0020F34D100F0BB
:100568001DFC401B0228F5D9032031E1484A1368D5
:1005780023F0F803216943EAC1031360DDE7454B23
:1005880000221A6000F00AFC0546414B1B6813F074
:10059800020FD2D000F002FC401B0228F5D903203C
:1005A80016E13C4B0022C3F8802E00F0F7FB05460D
:1005B800374B5B6F13F0020F06D000F0EFFB401BC8
:1005C8000228F5D9032003E1236813F0040F77D03C
:1005D8002F4B1B6C13F0805F33D1002301932C4BFE
:1005E8001A6C42F080521A641B6C03F0805301931A
:1005F800019B0125284B1B6813F4807F23D0A36837
:10060800012B34D0052B38D0214B1A6F22F0010270
:100618001A671A6F22F004021A67A368002B3DD0EC
:1006280000F0BCFB06461A4B1B6F13F0020F46D1B5
:1006380000F0B4FB801B41F288339842F3D90320C1
:10064800C6E00025D6E7144A136843F480731360A4
:1006580000F0A4FB0646104B1B6813F4807FCED134
:1006680000F09CFB801B0228F5D90320B0E0084A63
:10067800136F43F001031367CFE7054B1A6F42F07E
:1006880004021A671A6F42F001021A67C5E700BF31
:1006980000380240000047420070004000F07EFB36
:1006A8000646524B1B6F13F0020F08D000F076FB82
:1006B800801B41F288339842F3D9032088E0EDB9D2
:1006C800A369002B00F08380484A926802F00C026C
:1006D800082A51D0022B17D0454B00221A6600F089
:1006E8005DFB0446414B1B6813F0007F42D000F0CD
:1006F80055FB001B0228F5D9032069E03B4A136C1F
:1007080023F080531364DBE7394B00221A6600F0AC
:1007180045FB0546354B1B6813F0007F06D000F0FB
:100728003DFB401B0228F5D9032051E0E369226A0A
:100738001343626A43EA8213A26A5208013A43EAFF
:100748000243E26A43EA0263284A5360284B0122C3
:100758001A6600F023FB0446244B1B6813F0007F45
:1007680006D100F01BFB001B0228F5D903202FE05F
:1007780000202DE000202BE0012B2BD01B4B5B68C9
:1007880003F48001E269914226D103F03F02216A15
:100798008A4223D1616A47F6C0721A40B2EB811FC0
:1007A8001ED103F44031A26A5208013AB1EB024F5C
:1007B80018D103F07063E26AB3EB026F14D1002022
:1007C80006E001207047012002E0012000E000203F
:1007D80002B070BD0120FBE70120F9E70120F7E72F
:1007E8000120F5E70120F3E70120F1E70038024096
:1007F8000000474208B5334B9B6803F00C03042BF9
:100808005BD0082B5BD12F4B5A6802F03F025B6824
:1008180013F4800F2CD02B4B5868C0F388104FEA84
:10082800401CBCEB000C6EEB0E0E4FEA8E1343EA35
:100838009C634FEA8C11B1EB0C0163EB0E03DB00F8
:1008480043EA5173C90011EB000C43F1000359024C
:1008580000234FEA4C2041EADC51FFF791FC194B89
:100868005B68C3F3014301335B00B0FBF3F027E09F
:10087800144B5868C0F388104FEA401CBCEB000CBE
:100888006EEB0E0E4FEA8E1343EA9C634FEA8C110F
:10089800B1EB0C0163EB0E03DB0043EA5173C900B3
:1008A80011EB000C43F10003990200234FEA8C205E
:1008B80041EA9C51FFF764FCD1E7034800E0034894
:1008C80008BD00BF0038024000127A000024F4007E
:1008D800002800F09B8070B50D4604464F4B1B68FE
:1008E80003F007038B4208D2CBB24C4A137013684B
:1008F80003F007038B4240F08B80236813F0020F4C
:1009080017D013F0040F04D0454A936843F4E0531A
:100918009360236813F0080F04D0414A936843F4A6
:10092800604393603E4A936823F0F003A1680B4349
:100938009360236813F0010F32D06368012B21D034
:100948009A1E012A25D9364A126812F0020F61D080
:1009580033498A6822F0030213438B6000F01EFAC1
:1009680006462F4B9B6803F00C036268B3EB820FBB
:1009780016D000F013FA801B41F288339842F0D960
:10098800032042E0264A126812F4003FE0D1012019
:100998003BE0234A126812F0007FD9D1012034E0ED
:1009A8001E4B1B6803F00703AB4207D9EAB21B4B87
:1009B8001A701B6803F00703AB422DD1236813F0AC
:1009C800040F06D0164A936823F4E053E1680B43FA
:1009D8009360236813F0080F07D0114A936823F433
:1009E8006043216943EAC1039360FFF703FF0C4B9F
:1009F8009B68C3F303130B4AD35CD8400A4B1860B7
:100A08000A4B186800F07EF9002070BD012070477D
:100A18000120FAE70120F8E70120F6E7003C024050
:100A280000380240D012000808000020040000200E
:100A380000230F2B00F2E98070B582B065E085686D
:100A48004FEA430E032404FA0EF425EA0405CC68A1
:100A580004FA0EF42C438460446824EA02044A68C9
:100A6800C2F300129A40224342605CE0DC0808347A
:100A780050F8242003F00705AD004FF00F0E0EFAD2
:100A880005FE22EA0E0E0A69AA4042EA0E0240F862
:100A980024205CE0072200E0002202FA0EF22A433A
:100AA80002345A4D45F82420594A94686FEA0C02DA
:100AB80024EA0C054E6816F4801F01D04CEA0405A0
:100AC800534CA560E46802EA04054E6816F4001F5A
:100AD80001D04CEA04054E4CE560646802EA04055E
:100AE8004E6816F4003F01D04CEA0405484C656096
:100AF800246822404D6815F4803F01D04CEA040276
:100B0800434C226001330F2B7DD801229A400C6898
:100B180004EA020C32EA0404F4D14C6804F0030439
:100B2800013C012C8BD94A6802F00302032A09D040
:100B3800C4685D000322AA4024EA02048A68AA4025
:100B48002243C2604A6802F00302022A8ED0046877
:100B58004FEA430E032202FA0EF224EA02044A681C
:100B680002F0030202FA0EF2224302604A6812F40B
:100B7800403FC7D000220192264A546C44F4804476
:100B88005464526C02F480420192019A9C08A51C9C
:100B98001E4A52F8255003F0030E4FEA8E0E0F221C
:100BA80002FA0EF225EA02051B4A90423FF474AF9E
:100BB80002F5806290421AD002F58062904218D005
:100BC80002F58062904216D002F58062904214D0FD
:100BD80002F58062904212D002F58062904210D0F5
:100BE80002F5806290423FF455AF082255E7012292
:100BF80053E7022251E703224FE704224DE705227B
:100C08004BE7062249E702B070BD70470038014043
:100C1800003C01400038024000000240436901EAFC
:100C2800030221EA030141EA0241816170470000A1
:100C3800002808DB0901C9B200F1604000F56140F5
:100C480080F80013704700F00F000901C9B2014B8A
:100C58001954704714ED00E000B500F00700C0F12A
:100C6800070CBCF1040F28BF4FF0040C031D062B22
:100C78000FD9C31E4FF0FF3E0EFA0CF021EA000117
:100C880099400EFA03FE22EA0E0241EA02005DF8DC
:100C980004FB0023EEE70000074AD36823F4E0636F
:100CA8001B041B0C000200F4E060034343F0BF6325
:100CB80043F40033D360704700ED00E010B50446FC
:100CC800054BD868C0F30220FFF7C6FF014620464F
:100CD800FFF7AEFF10BD00BF00ED00E00138B0F136
:100CE800807F0BD24FF0E0235861054AF02182F84B
:100CF80023100020986107221A617047012070476D
:100D080000ED00E010B504460E4B1A784FF47A73E4
:100D1800B3FBF2F30C4A1068B0FBF3F0FFF7DEFF09
:100D280068B90F2C01D901200AE0002221464FF0B2
:100D3800FF30FFF7C3FF054B1C60002000E00120D7
:100D480010BD00BF000000200800002004000020A3
:100D580008B50B4B1A6842F400721A601A6842F41C
:100D680080621A601A6842F480721A600320FFF7E2
:100D780093FF0F20FFF7C6FFFFF724FB002008BDF5
:100D8800003C0240034A1168034B1B780B44136074
:100D9800704700BF2C00002000000020014B18689D
:100DA800704700BF2C000020034AD2F8883043F473
:100DB8007003C2F88830704700ED00E0044B002251
:100DC80083F8C820D3F8C4200244C3F8C42070476D
:100DD80030000020DFF834D00D480E490E4A0023B9
:100DE80002E0D458C4500433C4188C42F9D30B4AD7
:100DF8000B4C002301E013600432A242FBD3FFF73F
:100E0800D3FF00F063F8FFF7AFFA70470000022045
:100E18000000002010000020F4120008100000203C
:100E280078030020FEE70000830730B547D0541E42
:100E3800002A3ED0CAB2034601E0013C39D303F888
:100E4800012B9D07F9D1032C2CD9CDB205EB052533
:100E58000F2C05EB054535D9A4F1100222F00F0C33
:100E680003F1100EE6444FEA121C1A46156055604D
:100E78009560D56010327245F8D10CF1010214F07A
:100E88000C0F03EB021204F00F0C13D0ACF10403A7
:100E980023F003030433134442F8045B9A42FBD162
:100EA8000CF003042CB1C9B21C4403F8011B9C428A
:100EB800FBD130BD64461346002CF4D1F9E7034654
:100EC8001446C0E71A46A446E0E700BF70B50F4BCA
:100ED8000F4DAB42A3EB050607D0B610002455F81A
:100EE800043B01349847A642F9D800F0E1F9094DCE
:100EF800094B5E1BAB424FEAA60606D0002455F804
:100F0800043B01349847A642F9D870BDE81200089E
:100F1800E8120008E8120008F0120008704700BF45
:100F2800704700BF024B13B1024800F005B8704784
:100F3800000000004D0F0008002301461A4618461D
:100F480000F014B838B5074D074C2C1BA41005D079
:100F5800013C55F8043D9847002CF9D1BDE83840CC
:100F680000F0ACB9F4120008F01200082DE9F047BF
:100F7800DFF87CA00646DAF8000098460F4691464E
:100F8800FFF7CCFF184B1C6824B365681F2D24DCC1
:100F98005EB96B1C0235DAF80000636044F825700E
:100FA800FFF7BEFF0020BDE8F08704EB85010123B1
:100FB800C1F88890D4F88821AB401A43022EC4F8AF
:100FC8008821C1F80881E4D1D4F88C211A43C4F8E7
:100FD8008C21DEE7054C1C60D7E7DAF80000FFF744
:100FE8009FFF4FF0FF30DEE7E4010020E80100201A
:100FF8000C0000202DE9F047089D0C46002B4ED12F
:1010080094468C458646B2FA82F262D94AB1C2F158
:101018002003914020FA03F30CFA02FC194300FA6A
:1010280002FE4FEA1C471FFA8CF6B1FBF7F44FEAB1
:101038001E4307FB141143EA014304FB06F19942DE
:101048000AD91CEB030304F1FF3080F013819942A5
:1010580040F21081023C6344591A1FFA8EF3B1FB27
:10106800F7F007FB101143EA014300FB06F69E4226
:101078000AD91CEB030300F1FF3180F0FD809E428A
:1010880040F2FA80634402389B1B40EA0440002186
:101098001DB1D3400022C5E90032BDE8F0878B427C
:1010A80005D90DB1C5E9000100210846F5E7B3FAF5
:1010B80083F1002946D1A34202D39042C0F0F180C7
:1010C800861A64EB03030120002DE6D0C5E900630E
:1010D800E3E7002A40F09180A1EB0C044FEA1C489A
:1010E8001FFA8CF70121B4FBF8F64FEA1E4308FB00
:1010F800164443EA044307FB06F0984208D91CEB60
:10110800030306F1FF3402D2984200F2CE8026464D
:101118001C1A1FFA8EF3B4FBF8F008FB104443EADC
:10112800044300FB07F79F4208D91CEB030300F1B7
:10113800FF3402D29F4200F2B1802046DB1B40EA16
:101148000640A5E7C1F120068B4022FA06F71F43A7
:1011580020FA06FC04FA01F343EA0C03F44000FA0F
:1011680001F8380C4FEA1349B4FBF0FE1FFA87FC6C
:1011780000FB1E4449EA04440EFB0CF9A14502FA9F
:1011880001F20AD93C190EF1FF3A80F08580A14599
:1011980040F28280AEF1020E3C44A4EB09041FFA2F
:1011A80083F9B4FBF0F300FB134449EA044403FB5E
:1011B8000CFCA44507D93C1903F1FF3068D2A445BB
:1011C80066D9023B3C4443EA0E40A0FB0293A4EBE1
:1011D8000C049C42CE469C4652D34FD055B1B8EB36
:1011E8000E0364EB0C0404FA06F6CB40CC401E4315
:1011F800C5E900640021BDE8F087C2F1200320FAA8
:1012080003F10CFA02FC24FA03F394400C434FEA6E
:101218001C4800FA02FE1FFA8CF7B3FBF8F008FB33
:101228001031230C43EA014300FB07F1994208D926
:101238001CEB030300F1FF362CD299422AD902385D
:1012480063445B1AA4B2B3FBF8F108FB113344EA18
:10125800034401FB07F3A34208D91CEB040401F182
:10126800FF3613D2A34211D902396444E41A41EA81
:10127800004138E70446EFE6084605E7C845ADD221
:10128800B9EB020E63EB070C0138A7E73146EDE72F
:10129800034698E73046D4E7D6467EE763440238EB
:1012A8004CE70646234608460EE7023E63442FE70E
:1012B800F8B500BFF8BC08BC9E467047F8B500BF3B
:0812C800F8BC08BC9E4670470B
:1012D00000000000000000000102030406070809E6
:0812E0001CFDFF7F010000006E
:0812E8002D0F0008250200088B
:0412F000FD010008F4
:1012F40001000000100000000024F400E0010020C0
:0400000508000DDD05
:00000001FF
