:020000040800F2
:100000000000022041A00208950A0008970A000893
:10001000990A00089B0A00089D0A000800000000D9
:100020000000000000000000000000009F0A00081F
:10003000A10A000800000000A30A0008A50A0008A1
:1000400091A0020891A0020891A0020891A00208C4
:1000500091A0020891A0020891A0020891A00208B4
:1000600091A0020891A0020891A0020891A00208A4
:1000700091A0020891A0020891A0020891A0020894
:1000800091A0020891A0020891A0020891A0020884
:1000900091A0020891A0020891A0020891A0020874
:1000A00091A0020891A0020891A0020891A0020864
:1000B00091A0020891A0020891A0020891A0020854
:1000C00091A0020891A0020891A0020891A0020844
:1000D00091A0020891A0020891A0020891A0020834
:1000E00091A0020891A0020891A0020891A0020824
:1000F00091A0020891A0020891A0020891A0020814
:1001000091A0020891A0020891A0020891A0020803
:1001100091A0020891A0020891A0020891A00208F3
:1001200091A0020891A0020891A0020891A00208E3
:1001300091A0020891A0020891A0020891A00208D3
:1001400091A0020891A0020891A0020891A00208C3
:1001500091A0020891A0020891A0020891A00208B3
:1001600091A0020891A0020891A0020891A00208A3
:1001700091A0020891A0020891A0020800000000CE
:0801800091A0020891A0020801
:1001A000A2EB0300704700BF02780B78012A28BF3A
:1001B0009A42F5D16DE9044540EA0104CDE90267B0
:1001C0006FF0000C4FEA447212B380EA010414F09D
:1001D000070F6AD100F0070420F0070004F00305C0
:1001E00021F007014FEAC505F0E8042314F0040FDD
:1001F000F1E804670CFA05F462EA040266EA040610
:100200000AD063EA0403624667EA0407664603E02D
:10021000F0E80423F1E8046782FA4CF582EA060468
:10022000A4FA8CF46CBB83FA4CF583EA0705A5FAB3
:100230008CF595B950E9022351E9026782FA4CF531
:1002400082EA0604A4FA8CF483FA4CF583EA0705E3
:10025000A5FA8CF52543DBD09CB92DBAB5FA85F407
:1002600024F0070427FA04F1DDE9026723FA04F316
:1002700003F0FF0001F0FF01FDE80445A0EB0100E1
:10028000704724BAB4FA84F424F0070426FA04F17F
:10029000DDE9026722FA04F202F0FF0001F0FF013B
:1002A000FDE80445A0EB0100704714F0030F3CD1BA
:1002B00010F0030428D150F8082B51F8083B82FABB
:1002C0004CF582EA0305A5FA8CF55DB950F8042CCB
:1002D00051F8043C82FA4CF582EA0305A5FA8CF544
:1002E000002DE8D02DBAB5FA85F424F0070423FADE
:1002F00004F122FA04F202F0FF0001F0FF01FDE830
:100300000445A0EB010070474FEAC40420F003004D
:1003100050F8082B21F0030151F8083B0CFA04F4C3
:1003200062EA040263EA0403C9E710F003041AD086
:10033000A1EB040120F00300E40750F8042B06D0E1
:100340000FD28B785FFAA2F4E41A06D12BB1CB78E6
:100350005FFAB2F4E41A00D11BB920465DF8104BE5
:10036000704701F1040150F8042BCC0721F0030180
:1003700051F8043B48D824D222F07F4482FA4CF54D
:1003800094EA1325A5FA8CF50AD165B951F8043B16
:1003900084EA0204B4EB036F0ED150F8042BEBE7B0
:1003A0004FEA132355E035F07F454DD10878FDE83D
:1003B0000445C0F1000070474FEA126203F0FF03EA
:1003C00047E002EA1C4482FA4CF594EA1345A5FA88
:1003D0008CF50AD165B951F8043B84EA0204B4EB08
:1003E000034F0CD150F8042BEBE74FEA134330E0F6
:1003F00015EA1C4528D10B884FEA124229E04FEA42
:10040000124203EA1C4324E002F0FF0482FA4CF596
:1004100094EA1365A5FA8CF50AD165B951F8043B45
:1004200084EA0204B4EB032F09D150F8042BEBE764
:100430004FEA13630DE015F0FF0F05D10B684FEA8B
:10044000122223F07F4304E04FF00000FDE8044552
:10045000704712BA1BBA82FA4CF482EA0304A4FA77
:100460008CF5B5FA85F402FA04F203FA04F34FEAC4
:100470001260FDE80445A0EB13607047844641EA32
:10048000000313F003036DD1403A41D351F8043B0C
:1004900040F8043B51F8043B40F8043B51F8043B5E
:1004A00040F8043B51F8043B40F8043B51F8043B4E
:1004B00040F8043B51F8043B40F8043B51F8043B3E
:1004C00040F8043B51F8043B40F8043B51F8043B2E
:1004D00040F8043B51F8043B40F8043B51F8043B1E
:1004E00040F8043B51F8043B40F8043B51F8043B0E
:1004F00040F8043B51F8043B40F8043B51F8043BFE
:1005000040F8043B51F8043B40F8043B403ABDD26C
:10051000303211D351F8043B40F8043B51F8043B0E
:1005200040F8043B51F8043B40F8043B51F8043BCD
:1005300040F8043B103AEDD20C3205D351F8043B9D
:1005400040F8043B043AF9D2043208D0D2071CBF69
:1005500011F8013B00F8013B01D30B880380604692
:10056000704700BF082A13D38B078DD010F0030308
:100570008AD0C3F10403D21ADB071CBF11F8013B78
:1005800000F8013B80D331F8023B20F8023B7BE7C7
:10059000043AD9D3013A11F8013B00F8013BF9D2F2
:1005A0000B7803704B7843708B788370604670478C
:1005B0007BB972B90029BEBF00204FF0004106E0B0
:1005C00008BF00281CBF6FF000414FF0FF3000F063
:1005D00057B8ADF1080C6DE904CE002909DB002BFA
:1005E0001ADB29F03DFEDDF804E0DDE9022304B06A
:1005F0007047404261EB4101002B1BDB29F030FECC
:10060000DDF804E0DDE9022304B0404261EB410182
:10061000524263EB43037047524263EB430329F0BA
:100620001FFEDDF804E0DDE9022304B0404261EB87
:1006300041017047524263EB430329F011FEDDF89C
:1006400004E0DDE9022304B0524263EB4303704748
:1006500053B94AB9002908BF00281CBF4FF0FF3129
:100660004FF0FF3000F00CB8ADF1080C6DE904CE8E
:1006700029F0F6FDDDF804E0DDE9022304B070475F
:10068000704700BF0348044B834202D0034B03B1C1
:1006900018477047980000209800002000000000D4
:1006A0000548064B1B1AD90F01EBA301491002D0D4
:1006B000034B03B1184770479800002098000020B2
:1006C0000000000010B5064C237843B9FFF7DAFFAD
:1006D000044B13B10448AFF300800123237010BD15
:1006E00098000020000000001CA5020808B5054B7A
:1006F0001BB105490548AFF30080BDE80840FFF78E
:10070000CFBF00BF000000009C0000201CA5020815
:1007100070B582B006460B46154608880A89121A3B
:1007200092B2013292B289889B895B1A9BB20133E3
:100730009BB24FF0000C09E035F81C404FEA042E44
:100740004EEA142E25F81CE00CF1010C03FB02F418
:100750006445F1DC009501F05DFA304601F08EFB56
:1007600002B070BD2DE9F0418AB000240194374BEE
:100770001A6B42F004021A631A6B02F0040201922F
:10078000019A02941A6B42F080021A631A6B02F00B
:1007900080020292029A03941A6B42F001021A63D9
:1007A0001A6B02F001020392039A04941A6B42F04E
:1007B00002021A631B6B03F002030493049B244F91
:1007C00022468021384600F0B7FFDFF88C802246B1
:1007D0004FF4C061404600F0AFFF1E4D224640215D
:1007E000284600F0A9FF4FF4005305934FF404137B
:1007F0000693079405A9384600F0A8FE80230593C8
:10080000012606960794089405A9384600F09EFE36
:100810004FF4C063059306960794089405A94046D3
:1008200000F094FE102305930694079405A928462A
:1008300000F08CFE4023059306960794089405A9C2
:10084000284600F083FE0AB0BDE8F081003802407F
:1008500000080240000402400000024008B501F018
:1008600099FA01F013FB08BD08B501F0CDF801F0CD
:10087000D5F808BD72B6FEE708B50D480D4B03600C
:100880004FF48273436000238360C360036143615C
:100890004FF400728261C3610362436283620A2380
:1008A000C36200F0FDF900B908BDFFF7E3FF00BF28
:1008B000D85A00200030014000B595B03022002108
:1008C00008A829F0E7FB00230393049305930693FC
:1008D00007930193204A116C41F080511164126C0E
:1008E00002F080520192019A02931C4B1A6842F462
:1008F00080421A601B6803F480430293029B012329
:1009000008934FF48033099302230E934FF480022F
:100910000F9204221092A82211921293072313938C
:1009200008A800F0F9FA98B90F230393022304935F
:10093000002305934FF4A05306934FF4805307937D
:10094000052103A800F052FD20B915B05DF804FBA5
:10095000FFF790FFFFF78EFF003802400070004065
:1009600030B589B000F07EFFFFF7A6FFFFF7FAFE73
:10097000FFF782FFFFF778FF01F0CAF9404D4FF40F
:10098000B44302933F4B0193142300931223F022AC
:100990004FF4A071284616F0F3FFF0214FF4A07039
:1009A00001F0B8FA0446384901F04FFA002229460E
:1009B000204601F03BFA0021204601F035FC334C83
:1009C000204604F004F80521204604F0B0FAFF2187
:1009D000204604F05CF90321122005F079FB8DF824
:1009E0001400C0F307238DF81530C0F307408DF8CD
:1009F00016000599204604F039F90221204604F03A
:100A000086F9052005F02CFB8DF81800C0F30723AC
:100A10008DF81930C0F307408DF81A00069920466A
:100A200004F05AF9052005F01BFB8DF81C00C0F3FB
:100A300007238DF81D30C0F307408DF81E0007997D
:100A4000204604F0EAF97F21204604F0F7F9FFF789
:100A500005FF21F02DF805460022214608F0FAFC9A
:100A60000B49284621F003FB00231A46092128469A
:100A70000AF0B2FC052000F021FF04F029FDF9E79F
:100A8000C05A0020C000002011070008B400002058
:100A900078F10208FEE7FEE7FEE7FEE7FEE77047B3
:100AA0007047704708B500F0F7FE012001F0DCF850
:100AB00008BD000082B0002100910B4B5A6C42F43B
:100AC00080425A645A6C02F480420092009A01916A
:100AD0001A6C42F080521A641B6C03F0805301932D
:100AE000019B02B0704700BF0038024070B588B06B
:100AF00000230393049305930693079302681A4B0C
:100B00009A4201D008B070BD0024019403F58433EB
:100B10005A6C42F480525A645A6C02F48052019228
:100B2000019A02941A6B42F001021A631B6B03F0E4
:100B300001030293029BA023039302230493032641
:100B4000069605230793094D03A9284600F0FEFCED
:100B500040230393012304930594069603A9284692
:100B600000F0F4FCCEE700BF00300140000002407E
:100B70002DE9F04782B00546884617461E4600F02C
:100B800097FE0A9B1B1A03EB060900F091FE8246B2
:100B9000284B1B68C3F3CB3309FB03F301932B688A
:100BA0009C6838EA04040CBF01230023BB423DD0FB
:100BB000B6F1FF3FF3D000F07BFEA0EB0A00484502
:100BC00007D2019A02B14A46019B013B019391462B
:100BD000E5E72A68536823F0E00353606B68B3F5D8
:100BE000827F0BD0AB6AB3F5005F14D0012385F888
:100BF0005130002385F85030032018E0AB68B3F57E
:100C0000004F02D0B3F5806FECD12A68136823F04F
:100C100040031360E6E72A68136823F40053136067
:100C20002A68136843F400531360DFE7002002B022
:100C3000BDE8F0870800002010B584B00446164BCC
:100C40001868164BA3FB0030400D4FF47A7303FB7A
:100C500000F003906368B3F5827F0BD0039BBBB1B8
:100C6000039B013B039323689B6813F0800FF5D12E
:100C700000200EE000920B46002280212046FFF764
:100C800077FF30B1636D43F020036365032000E01C
:100C9000002004B010BD00BF08000020819F5E1638
:100CA00000285AD010B50446436A33B94368B3F5F7
:100CB000827F05D00023C36102E00023036143610A
:100CC0000023A36294F85130002B40D0022384F813
:100CD00051302268136823F040031360636803F403
:100CE0008273A26802F404421343E26802F40062D1
:100CF0001343226902F002021343626902F0010207
:100D00001343A26902F400721343E26902F038024D
:100D10001343226A02F080021343A26A02F40052D3
:100D2000216813430B60638B03F00403626A02F0D3
:100D30001002216813434B602268D36923F40063D7
:100D4000D36100206065012384F8513010BD84F820
:100D500050302046FFF7CAFEB8E7012070472DE962
:100D6000F04383B01D4690F85030012B00F0D18045
:100D7000044688469146012380F8503000F098FDE3
:100D8000074694F85160F6B2012E40F0AF80B8F1FA
:100D9000000F00F0AC80B9F1000F00F0A880032331
:100DA00084F8513000236365C4F83080A4F834908F
:100DB000A4F83690A363A387E38763642364A368DE
:100DC000B3F5004F1ED023681A6812F0400F03D10C
:100DD0001A6842F040021A60E368B3F5006F1CD055
:100DE000636813B1B9F1010F52D1226B23681278F5
:100DF0001A73236B01332363E38E9BB2013B9BB2D7
:100E0000E38645E02268136823F0400313602268FC
:100E1000136843F480431360D5E7636813B1B9F1F5
:100E2000010F16D1226B23681288DA60236B02331C
:100E30002363E38E9BB2013B9BB2E38609E000F0A3
:100E400037FDC01BA84202D3B5F1FF3F59D1002D99
:100E500059D0E38E9BB2002B33D023689A6812F0EE
:100E6000020FECD0226B1288DA60236B023323630B
:100E7000E38E9BB2013B9BB2E386EAE700F018FDEC
:100E8000C01BA84202D3B5F1FF3F3ED1002D3ED09A
:100E9000E38E9BB2ABB123689A6812F0020FEDD0DB
:100EA000226B12781A73236B01332363B4F836C0B4
:100EB0001FFA8CFC0CF1FF3C1FFA8CFCA4F836C026
:100EC000E6E73A4629462046FFF7B6FE08B120235A
:100ED0006365A36833B901932368DA6801929B685C
:100EE0000193019B636D13B9002600E002260123E4
:100EF00084F85130002384F85030304603B0BDE808
:100F0000F0830326F3E70326F1E70326EFE7032642
:100F1000EDE70226F1E70000002800F0E08170B55F
:100F200082B00446036813F0010F3BD09F4B9B68CF
:100F300003F00C03042B2CD09C4B9B6803F00C0398
:100F4000082B21D06368B3F5803F4FD0B3F5A02FB5
:100F500052D0964B1A6822F480321A601A6822F432
:100F600080221A606368002B50D000F0A1FC054677
:100F70008E4B1B6813F4003F14D100F099FC401B0A
:100F80006428F5D90320B1E1884B5B6813F4800F26
:100F9000D8D0864B1B6813F4003F03D06368002B46
:100FA00000F09F81236813F0020F54D07F4B9B68A1
:100FB00013F00C0F3ED07D4B9B6803F00C03082B05
:100FC00033D0E368002B68D0794B01221A6000F01F
:100FD0006FFC0546754B1B6813F0020F54D100F0EF
:100FE00067FC401B0228F5D903207FE16F4A136894
:100FF00043F480331360B5E76C4B1A6842F48022E7
:101000001A601A6842F480321A60ABE700F050FCB4
:101010000546664B1B6813F4003FC3D000F048FC44
:10102000401B6428F5D9032060E1604B5B6813F432
:10103000800FC6D15D4B1B6813F0020F03D0E3682D
:10104000012B40F05081594A136823F0F8032169BD
:1010500043EAC1031360236813F0080F42D06369A9
:101060006BB3534B0122C3F8802E00F021FC0546E0
:101070004E4B5B6F13F0020F34D100F019FC401B94
:101080000228F5D9032031E1484A136823F0F80318
:10109000216943EAC1031360DDE7454B00221A6072
:1010A00000F006FC0546414B1B6813F0020FD2D03E
:1010B00000F0FEFB401B0228F5D9032016E13C4B53
:1010C0000022C3F8802E00F0F3FB0546374B5B6F20
:1010D00013F0020F06D000F0EBFB401B0228F5D9FD
:1010E000032003E1236813F0040F77D02F4B1B6C10
:1010F00013F0805F33D1002301932C4B1A6C42F024
:1011000080521A641B6C03F080530193019B0125EC
:10111000284B1B6813F4807F23D0A368012B34D0A5
:10112000052B38D0214B1A6F22F001021A671A6F73
:1011300022F004021A67A368002B3DD000F0B8FB30
:1011400006461A4B1B6F13F0020F46D100F0B0FB9E
:10115000801B41F288339842F3D90320C6E0002572
:10116000D6E7144A136843F48073136000F0A0FBC1
:101170000646104B1B6813F4807FCED100F098FB1D
:10118000801B0228F5D90320B0E0084A136F43F012
:1011900001031367CFE7054B1A6F42F004021A6789
:1011A0001A6F42F001021A67C5E700BF003802401B
:1011B000000047420070004000F07AFB0646524BA8
:1011C0001B6F13F0020F08D000F072FB801B41F27E
:1011D00088339842F3D9032088E0EDB9A369002B46
:1011E00000F08380484A926802F00C02082A51D02D
:1011F000022B17D0454B00221A6600F059FB04461B
:10120000414B1B6813F0007F42D000F051FB001BE4
:101210000228F5D9032069E03B4A136C23F0805380
:101220001364DBE7394B00221A6600F041FB0546E8
:10123000354B1B6813F0007F06D000F039FB401BD4
:101240000228F5D9032051E0E369226A1343626A58
:1012500043EA8213A26A5208013A43EA0243E26A6D
:1012600043EA0263284A5360284B01221A6600F0C1
:101270001FFB0446244B1B6813F0007F06D100F0CF
:1012800017FB001B0228F5D903202FE000202DE0DA
:1012900000202BE0012B2BD01B4B5B6803F480015B
:1012A000E269914226D103F03F02216A8A4223D1AA
:1012B000616A47F6C0721A40B2EB811F1ED103F477
:1012C0004031A26A5208013AB1EB024F18D103F043
:1012D0007063E26AB3EB026F14D1002006E00120D4
:1012E0007047012002E0012000E0002002B070BD44
:1012F0000120FBE70120F9E70120F7E70120F5E7EE
:101300000120F3E70120F1E70038024000004742E6
:1013100008B5334B9B6803F00C03042B5BD0082B00
:101320005BD12F4B5A6802F03F025B6813F4800FC9
:101330002CD02B4B5868C0F388104FEA401CBCEBF4
:10134000000C6EEB0E0E4FEA8E1343EA9C634FEADD
:101350008C11B1EB0C0163EB0E03DB0043EA51731C
:10136000C90011EB000C43F10003590200234FEABE
:101370004C2041EADC51FFF76BF9194B5B68C3F372
:10138000014301335B00B0FBF3F027E0144B5868D6
:10139000C0F388104FEA401CBCEB000C6EEB0E0E45
:1013A0004FEA8E1343EA9C634FEA8C11B1EB0C01B8
:1013B00063EB0E03DB0043EA5173C90011EB000C31
:1013C00043F10003990200234FEA8C2041EA9C512B
:1013D000FFF73EF9D1E7034800E0034808BD00BF2E
:1013E0000038024000127A000024F400002800F0C7
:1013F0009B8070B50D4604464F4B1B6803F00703F6
:101400008B4208D2CBB24C4A1370136803F0070327
:101410008B4240F08B80236813F0020F17D013F03B
:10142000040F04D0454A936843F4E0539360236863
:1014300013F0080F04D0414A936843F4604393606B
:101440003E4A936823F0F003A1680B43936023683E
:1014500013F0010F32D06368012B21D09A1E012AAC
:1014600025D9364A126812F0020F61D033498A68D2
:1014700022F0030213438B6000F01AFA06462F4B4A
:101480009B6803F00C036268B3EB820F16D000F088
:101490000FFA801B41F288339842F0D9032042E0D2
:1014A000264A126812F4003FE0D101203BE0234AB3
:1014B000126812F0007FD9D1012034E01E4B1B6866
:1014C00003F00703AB4207D9EAB21B4B1A701B6843
:1014D00003F00703AB422DD1236813F0040F06D0AD
:1014E000164A936823F4E053E1680B439360236842
:1014F00013F0080F07D0114A936823F46043216961
:1015000043EAC1039360FFF703FF0C4B9B68C3F3EF
:1015100003130B4AD35CD8400A4B18600A4B186877
:1015200000F07AF9002070BD012070470120FAE731
:101530000120F8E70120F6E7003C024000380240B5
:1015400068A50208080000200400002000230F2BDB
:1015500000F2E98070B582B065E085684FEA430E1D
:10156000032404FA0EF425EA0405CC6804FA0EF408
:101570002C438460446824EA02044A68C2F30012DF
:101580009A40224342605CE0DC08083450F8242092
:1015900003F00705AD004FF00F0E0EFA05FE22EA2C
:1015A0000E0E0A69AA4042EA0E0240F824205CE0CE
:1015B000072200E0002202FA0EF22A4302345A4DBA
:1015C00045F82420594A94686FEA0C0224EA0C0575
:1015D0004E6816F4801F01D04CEA0405534CA560F8
:1015E000E46802EA04054E6816F4001F01D04CEAD4
:1015F00004054E4CE560646802EA04054E6816F482
:10160000003F01D04CEA0405484C65602468224044
:101610004D6815F4803F01D04CEA0402434C22602F
:1016200001330F2B7DD801229A400C6804EA020C8A
:1016300032EA0404F4D14C6804F00304013C012CA8
:101640008BD94A6802F00302032A09D0C4685D00FE
:101650000322AA4024EA02048A68AA402243C26004
:101660004A6802F00302022A8ED004684FEA430E51
:10167000032202FA0EF224EA02044A6802F003028C
:1016800002FA0EF2224302604A6812F4403FC7D0C9
:1016900000220192264A546C44F480445464526CF3
:1016A00002F480420192019A9C08A51C1E4A52F83D
:1016B000255003F0030E4FEA8E0E0F2202FA0EF2AF
:1016C00025EA02051B4A90423FF474AF02F580629E
:1016D00090421AD002F58062904218D002F58062E2
:1016E000904216D002F58062904214D002F58062DA
:1016F000904212D002F58062904210D002F58062D2
:1017000090423FF455AF082255E7012253E70222E9
:1017100051E703224FE704224DE705224BE706225B
:1017200049E702B070BD704700380140003C0140FD
:1017300000380240000002400AB18161704709048C
:1017400081617047002808DB0901C9B200F16040DF
:1017500000F5614080F80013704700F00F000901A8
:10176000C9B2014B1954704714ED00E000B500F008
:101770000700C0F1070CBCF1040F28BF4FF0040CA8
:10178000031D062B0FD9C31E4FF0FF3E0EFA0CF0BF
:1017900021EA000199400EFA03FE22EA0E0241EA14
:1017A00002005DF804FB0023EEE70000074AD3685F
:1017B00023F4E0631B041B0C000200F4E06003430D
:1017C00043F0BF6343F40033D360704700ED00E0A3
:1017D00010B50446054BD868C0F30220FFF7C6FFDA
:1017E00001462046FFF7AEFF10BD00BF00ED00E050
:1017F0000138B0F1807F0BD24FF0E0235861054AE9
:10180000F02182F823100020986107221A617047A6
:101810000120704700ED00E010B504460E4B1A7829
:101820004FF47A73B3FBF2F30C4A1068B0FBF3F099
:10183000FFF7DEFF68B90F2C01D901200AE0002272
:1018400021464FF0FF30FFF7C3FF054B1C6000201F
:1018500000E0012010BD00BF0000002008000020B3
:101860000400002008B50B4B1A6842F400721A609D
:101870001A6842F480621A601A6842F480721A6030
:101880000320FFF793FF0F20FFF7C6FFFFF712F9C2
:10189000002008BD003C0240034A1168034B1B783E
:1018A0000B441360704700BF305B00200000002035
:1018B000014B1868704700BF305B002038B5044604
:1018C000FFF7F6FF0546B4F1FF3F02D0044B1B784B
:1018D0001C44FFF7EDFF401BA042FAD338BD00BF08
:1018E00000000020034AD2F8883043F47003C2F8A5
:1018F0008830704700ED00E008B500224021024822
:10190000FFF71AFF08BD00BF0004024010B5074CE6
:10191000002280212046FFF70FFF0520FFF7CEFFB2
:10192000012280212046FFF707FF10BD000802407A
:1019300000B583B08DF8070000224FF4007107480E
:10194000FFF7FAFE4FF0FF3301220DF107010448C3
:10195000FFF705FA03B05DF804FB00BF000002408A
:10196000D85A002070B506460D4601224FF400718A
:101970000B48FFF7E1FE0FE02C46B5F5004F28BFFE
:101980004FF40044A4B24FF0FF33224631460548DD
:10199000FFF7E5F926442D1B002DEDD170BD00BFEA
:1019A00000000240D85A0020F0B583B007460D462B
:1019B00016461C462A20FFF7BBFF3B0A8DF8043071
:1019C0008DF80570330A8DF806308DF80760042114
:1019D0000DEB0100FFF7C6FF2B20FFF7A9FF2B0A35
:1019E0008DF804308DF80550230A8DF806308DF8F7
:1019F000074004210DEB0100FFF7B4FF2C20FFF797
:101A000097FF03B0F0BD000008B501224021024855
:101A1000FFF792FE08BD00BF0004024030B585B05C
:101A2000FFF76AFFFFF772FF0120FFF781FF4FF416
:101A30007A70FFF743FFCB20FFF77AFF714C94E8F1
:101A4000030000908DF8041005216846FFF78AFF17
:101A5000CF20FFF76DFFA368ADF800301B0C8DF8A9
:101A6000023003216846FFF77DFFE820FFF760FFA3
:101A7000E368ADF800301B0C8DF802300321684696
:101A8000FFF770FFEA20FFF753FF0025ADF8005085
:101A900002216846FFF766FFED20FFF749FF5A4B2A
:101AA000009304216846FFF75DFFF720FFF740FF32
:101AB00020238DF8003001216846FFF753FFC02036
:101AC000FFF736FF23238DF8003001216846FFF72A
:101AD00049FFC120FFF72CFF10238DF800300121B2
:101AE0006846FFF73FFFC520FFF722FF42F63E039F
:101AF000ADF8003002216846FFF734FFC720FFF73A
:101B000017FF86238DF8003001216846FFF72AFF72
:101B10003620FFF70DFF48238DF80030012168467D
:101B2000FFF720FF3A20FFF703FF55238DF8003021
:101B300001216846FFF716FFB120FFF7F9FE4FF4C9
:101B4000C053ADF8003002216846FFF70BFFB62006
:101B5000FFF7EEFE2D4B1B68ADF800301B0C8DF827
:101B6000023003216846FFF7FDFEF220FFF7E0FE9A
:101B70008DF8005001216846FFF7F4FE2620FFF79C
:101B8000D7FE01258DF8005029466846FFF7EAFE8A
:101B9000E020FFF7CDFE1E4BEC460FCBACE8070074
:101BA0002CF8023B1B0C8CF800300F216846FFF725
:101BB000D9FEE120FFF7BCFEEC46103494E80F009C
:101BC000ACE807002CF8023B1B0C8CF800300F210E
:101BD0006846FFF7C7FE1120FFF7AAFE7820FFF73F
:101BE0006DFE2920FFF7A4FE3620FFF7A1FEE823B3
:101BF0008DF8003029466846FFF7B4FEFFF704FF72
:101C000005B030BD34A502086403128178A502082E
:101C10007CA50208B0F5A07F25D2F8B504460D4694
:101C200017461E46EF2906D88318B3F5A07F02DCBD
:101C30008B19F02B00DDF8BDFFF75EFEE21992B2C2
:101C4000AB199BB2013B013A9BB292B229462046A6
:101C5000FFF7AAFE06FB07F149000698FFF782FE90
:101C6000FFF7D2FEE7E77047044B002283F8C82055
:101C7000D3F8C4200244C3F8C4207047345B00206A
:101C800008B5084BD3F8CC300BB1984708BD054BCD
:101C9000012283F8C820D3F8C40093F8C830002B81
:101CA000F5D0F3E7345B002010B50446FFF7E8FFFA
:101CB000A04201D3001B10BD001BFCE710B310B500
:101CC00004464FF4D872002100F017FC4FF4427123
:101CD000201D01F0A2FCB82104F1440001F09DFC9C
:101CE000094B6366012384F824300323A365822310
:101CF000E3624FF00043E3663A23E367034804F0EE
:101D000007FC10BDFEE700BFD4C3B2A1CDAB3412B7
:101D1000134B1B7803B1704710B5114C2046FFF7E9
:101D2000CDFF00F0FDFA15F0C7FD25F031F803F006
:101D300085FC03F001FA0BF057FE01F0CDFF06F031
:101D400037FD16F059FF12F07DFB07F08DF90AF010
:101D5000EBFF14F039FF28F049F90123237010BD7F
:101D6000345B002038B5054601F0C3FD0446284623
:101D700001F0BDFD322C00D038BDD0F8F0020028B3
:101D8000FAD003F039FCF7E708B509F005FB0020AD
:101D900008BD0000014B5869704700BF345B00204C
:101DA00008B520B10146044801F085FC08BD024891
:101DB00001F079FCFAE700BF385B002008B5024665
:101DC00048B192F8E832C3F34103012B0AD0032B48
:101DD00008D0106807E0FFF7DDFF02460028F0D1C9
:101DE000002000E0506808BD08B5024648B192F8EE
:101DF000E832C3F34103012B0AD0032B08D050680B
:101E000007E0FFF7C7FF02460028F0D1002000E0FE
:101E1000106808BD08B5034608B1986908BDFFF70A
:101E2000B9FF03460028F8D18220F7E738B50C4601
:101E30001546034618B1DC611D625C6238BDFFF7D0
:101E4000A9FF03460028F6D1F8E710B50C46034673
:101E500008B19C6210BDFFF79DFF03460028F8D132
:101E6000F8E708B5034610B193F83B0008BDFFF74B
:101E700091FF03460028F7D10020F7E70023036312
:101E80007047006A003818BF0120704708B5034644
:101E900010B1D3F8B00208BDFFF77CFF034600285D
:101EA000F7D1F8E708B5034610B1D3F8B40208BD7E
:101EB000FFF770FF03460028F7D1F8E708B503469F
:101EC00010B1D3F8C00208BDFFF764FF0346002835
:101ED000F7D1F8E708B5034610B1D3F8C40208BD3E
:101EE000FFF758FF03460028F7D1F8E708B5034687
:101EF00010B1D3F8BC0208BDFFF74CFF0346002821
:101F0000F7D1F8E728B108B500F5367001F0CFFC3D
:101F100008BDFEE770B584B006460D466A4801F07C
:101F200084FB002800F0C58004464FF44272002173
:101F300000F0E3FA266065604FF0FF33A360E360D2
:101F400000232361636194F83A3043F0010384F87D
:101F50003A308223A361122384F83B303C2000F006
:101F6000B1F9C4F8A002002800F0A480D4F8A4328B
:101F700013B1014620469847D4F8A02200235360AD
:101F8000D4F8A0229360D4F8A032013EDE60D4F8E9
:101F9000A032013D1D61D4F8A03294F83B201A759F
:101FA0000123C4F86032102104F5197001F035FBEB
:101FB000464B5D695C6122462121454803F016FAD3
:101FC000C4F8F002002876D01AF004FB002873D180
:101FD000052004F045F88DF80800C0F307238DF8BC
:101FE0000930C0F307408DF80A00002004F038F8EB
:101FF0008DF80C00C0F307238DF80D30C0F30740B7
:102000008DF80E00334B00930023039A029920466B
:102010001AF0ECFAC4F8EC02002006F00FF8C4F84D
:10202000BC02002006F00AF8C4F8B002002006F056
:1020300005F8C4F8C002002006F000F8C4F8C40295
:10204000D4F8BC0207F0A8F9D4F8C00207F0A4F94C
:10205000D4F8C40207F0A0F90221D4F8C00205F0B8
:10206000F9FF0221D4F8C40205F0F4FF0021D4F8EE
:10207000BC0204F031FB0021D4F8C00204F02CFBB8
:102080000021D4F8C40204F027FBD4F8B00209F010
:1020900061FD0E4B5D61A5B1002332220E49204641
:1020A000FFF730FFD4F8F00203F0B0FA204604B096
:1020B00070BDFEE7FEE7FEE71AF01EFBC4F8EC0277
:1020C000AAE75C61E8E700BF385B0020345B0020D2
:1020D000E1D6000864A90208651D000870B588B043
:1020E00004460E4615461C22002101A800F005FA00
:1020F000ADF80C6001940294059504F53674012244
:1021000001A9204601F09AFB012801D008B070BD5A
:10211000002201A9204601F091FBF7E7F0B585B058
:102120000446FFF74BFE07462046FFF75DFE0646D6
:102130006946D4F8C40209F05CF9002518E0D4F827
:10214000AC3253F825003946143001F02AFFD4F898
:10215000AC3253F825003146143001F027FFD4F893
:10216000AC326A462B2153F8250008F0E4FE013515
:10217000D4F8C832AB42E2D8D4F8C00239461430A1
:1021800001F00FFFD4F8C0023146143001F00EFF09
:102190006A462B21D4F8C00208F0CDFED4F8C40260
:1021A0003946143001F0FDFED4F8C4023146143033
:1021B00001F0FCFE6A462B21D4F8C40208F0BBFEF5
:1021C000D4F8BC023946143001F0EBFED4F8BC025E
:1021D0003146143001F0EAFE6A462B21D4F8BC02E5
:1021E00008F0A9FE4FF40072002104F13C0000F059
:1021F00084F92022002104F50F7000F07EF90025FB
:10220000C4F85C52D4F8C40209F0A4FC2A4605497B
:10221000284608F0C2F82A4630212046FFF75EFF24
:1022200005B0F0BD891D000810B50C46034648B145
:1022300093F8E82264F3420283F8E8221846FFF795
:102240006DFF10BDFFF7A6FD03460028F0D1F8E7AB
:1022500008B5034610B1D3F8EC0208BDFFF79AFDAC
:102260000346F8E710B50C46024638B1D2F86032A2
:1022700054B101210B44C2F8603210BDFFF78AFD52
:1022800002460028F2D1F8E74FF0FF31F2E708B537
:10229000034630B1D3F860020028D4BF00200120EB
:1022A00008BDFFF777FD03460028F3D10020F7E7CC
:1022B00008B90348704708B500F052F808BD00BFE0
:1022C000985B002038B510B9064C204638BD05464D
:1022D00000F046F804460028F7D02A46002100F016
:1022E0000CF9F2E7985B002008B5034B984202D046
:1022F00008B100F057F808BD985B002008B529B177
:10230000064A904206D000F041F808BDFFF7ECFF06
:102310000248FAE70846FFF7CBFFF6E7985B002094
:1023200010B54FF480310C4801F0CAF80B4CC4F8DA
:10233000840104F5C8740421204601F06EF920469A
:1023400001F092F938B10446044BD3F8840101F04E
:10235000C6F8206010BDFEE7E45C0020345B00207E
:1023600008B50146084AD2F888310344C2F88831DA
:10237000D2F88C01834238BF0346C2F88C31D2F8C0
:10238000840101F0B2F808BD345B002008B50A46AC
:102390000146034BD3F8840101F0D7F808BD00BF14
:1023A000345B002010B50146084CD4F8840101F0DC
:1023B000ADF8D4F88831834203D91B1AC4F88831A8
:1023C00010BD024B0022C3F88821F9E7345B0020DE
:1023D00010B40F2A1FD900F0030401F003039C423C
:1023E00061D1002C7FD0C4F104040346002C77D0C7
:1023F000002A75D011F801CB03F801CB013C013A5A
:10240000F4E711F8014B03F8014B013A002AF8D127
:102410005DF8044B70470346F8E70C781C704C7865
:102420005C708C789C70CC78DC700C791C714C7969
:102430005C718C799C71CC79DC710C7A1C724C7A51
:102440005C728C7A9C72CC7ADC720C7B1C734C7B39
:102450005C738C7B9C73CC7BDC730C7C1C744C7C21
:102460005C748C7C9C74CC7CDC740C7D1C754C7D09
:102470005C758C7D9C75CC7DDC750C7E1C764C7EF1
:102480005C768C7E9C76CC7EDC760C7F1C774C7FD9
:102490005C778C7F9C77CC7FDC7720332031203AAF
:1024A000202ABAD806E00346FAE711F8014B03F8F0
:1024B000014B013A002AF8D1AAE70C681C604C686D
:1024C0005C608C689C60CC68DC600C691C614C6949
:1024D0005C618C699C61CC69DC6120332031203ADD
:1024E000202AEAD806E00346FAE711F8014B03F880
:1024F000014B013A002AF8D18AE710F0030309D012
:10250000C3F1040303E000F8011B013A013B0BB1E6
:10251000002AF8D101EB012303EB014303EB016334
:1025200009E0036043608360C360036143618361CA
:10253000C3612030203A202AF3D802E000F8011BC2
:10254000013A002AFAD170470246002000E001302B
:10255000135C002BFBD1704784460A7801318CF85C
:1025600000200CF1010C002AF7D1704701E0013086
:102570000131037813B10A789342F8D00878181A19
:10258000704770B50546FFF7DFFF441C2046FFF794
:102590008FFE064618B122462946FFF719FF30463E
:1025A00070BD9A4200D2885470477047014600209F
:1025B00008E000EB8000531C0B60137803EB400332
:1025C000A3F130000A681378303BDBB2092BF0D955
:1025D00070472DE9F04F83B005460E4693461F46DF
:1025E000DDF830A00D9CDDF838900F9B13F0030F41
:1025F00019D1A0460192C84509D202F1010B3B4610
:1026000031462020A84708F101085A46F3E7DDF8D3
:1026100004B008E0013C02F101083B4631461AF8DB
:102620000400A8474246002CF4D10F9B13F0020F80
:1026300003D1104603B0BDE8F08FA2EB0B034B456E
:10264000F7D2541C3B4631462020A8472246F4E7E7
:102650002DE9F04385B099460C9D0D9C9DF838807E
:10266000DDF840E0119F129E16F0020F21D17FB1DC
:1026700016F0010F0CD0B8F1000F02D116F00C0FBC
:1026800006D0013F04E04FF0300C05F804C00134DF
:10269000744501D21F2CF6D916F0010F09D0BC42A7
:1026A00007D21F2C05D84FF0300C05F804C00134B8
:1026B000F2E716F0100F14D016F4806F04D11CB19D
:1026C000744522D0BC4220D00F9B102B36D00F9BDC
:1026D000022B3ED01F2C0ED84FF0300C05F804C052
:1026E00001341F2C07D8B8F1000F3AD04FF02D0C51
:1026F00005F804C0013403960297019400954B46F7
:10270000FFF767FF05B0BDE8F083B4F1010C13D00B
:102710000F9B102B0ED064460F9B102BD7D116F0B9
:10272000200FD4D01F2CD2D84FF0580C05F804C07D
:102730000134CFE7023CC7E76446C5E716F0200F37
:10274000EAD11F2CE8D84FF0780C05F804C001340A
:10275000C0E71F2CCFD84FF0620C05F804C001343D
:10276000B8E716F0040F05D04FF02B0C05F804C0A5
:102770000134C0E716F0080FBDD04FF0200C05F86B
:1027800004C00134B7E7F0B591B0169C189D1B9EAC
:102790000CB926F0100616F4806E16D064B34FF014
:1027A000000E12E00CF1300C5FFA8CFC0EF1010708
:1027B0000EF1400EEE440EF820CCB4FBF5FCAC421A
:1027C0001BD31F2F19D8BE466446B4FBF5FC05FB8E
:1027D0001C4C5FFA8CFCBCF1090FE3D916F0200FFA
:1027E00008D04127BC445FFA8CFCACF10A0C5FFABC
:1027F0008CFCDBE76127F5E7274606961A9C0594D3
:10280000199C049403959DF85C400294019708ACD0
:102810000094FFF71DFF11B0F0BD2DE9F04F95B00A
:1028200009900A910B929846DDF878B0DDF87C901B
:10283000229D239F269E5BEA090201D126F0100605
:1028400016F480641ED05BEA09022FD0002419E040
:102850003032D3B204F1010A04F150020DEB02044C
:1028600004F8203C2A463B4658464946FDF7F0FE10
:10287000AB4579EB07091BD3BAF11F0F18D85446A3
:10288000834689462A463B4658464946FDF7E0FEC0
:10289000D2B2092ADCD916F0200F05D04123134407
:1028A000DBB20A3BDBB2D5E76123F8E74FF0000A61
:1028B0000696259B0593249B049303959DF88030F1
:1028C0000293CDF804A00CAB009343460B9A0A99EF
:1028D0000998FFF7BDFE15B0BDE8F08F2DE9F04F68
:1028E00093B0804617460F938B46002900F0CF82A5
:1028F00000250F9B1878002800F0CC82252809D0ED
:102900006C1C3B462A465946C0470F9B01330F9328
:102910002546EEE701330F9300261FE046F001063F
:1029200001320F92012318E046F0020601320F92A5
:10293000012312E046F0040601320F9201230CE05D
:1029400046F0080601320F92012306E046F0100619
:1029500001320F92012300E000234BB30F9A13784A
:10296000203B102BF8D801A151F823F04129000891
:1029700059290008592900084D290008592900083B
:10298000592900085929000859290008592900081F
:102990005929000859290008352900085929000833
:1029A0002929000859290008592900081D2900086B
:1029B0000B930F9B1A78A2F13003DBB2092B18D9C5
:1029C0002A2A1BD0DDF82CA00F9B1A782E2A25D09E
:1029D0000F9A1378683B122B5CD8DFE803F0495B51
:1029E0007B5B3B5B5B5B5B5B5B5B575B5B5B5B5B3B
:1029F00080000FA8FFF7DAFD8246E5E71C9B1A1D51
:102A00001C921B68002B04DB9A460F9B01330F932B
:102A1000DAE746F00206C3F1000AF6E746F48066FC
:102A20005A1C0F925A78A2F13003DBB2092B0CD951
:102A30002A2ACDD11C9B1A1D1C921C6824EAE4731F
:102A40000B930F9B01330F93C2E70FA8FFF7AEFD67
:102A50000B90BDE746F48071531C0F9353786C2B99
:102A600001D00E4616E046F4407602320F9211E095
:102A700046F08001531C0F935378682B01D00E460B
:102A800008E046F0C00602320F9203E046F480767A
:102A900001320F920F990878782811D8622823D331
:102AA000A0F16202D2B2012393409B4A1A406ABB52
:102AB00013F4003F40F0868113F0020F40F0508184
:102AC0006C1C3B462A465946C0470F9B01330F9367
:102AD00025460EE746F4007601320F92DAE746F417
:102AE000807601320F92D5E725280AD16C1C3B462F
:102AF0002A4659462520C0470F9B01330F93254690
:102B0000F7E6DDD3502801D05828D9D1782828D02D
:102B10005038202821D8DFE800F013202020202082
:102B20002020112020202020202020201E202020B6
:102B3000202020202020202020601300102211E0DF
:102B400046F488764B78562B01D010220AE00131EA
:102B50000F91102206E0022204E026F010060A225D
:102B600000E010220F9B1B78582B01D0502B01D175
:102B700046F02006692B03D0642B01D026F00C060A
:102B800016F4806F01D026F00106692B27D0642B44
:102B900025D0562B00F0938016F4007F40F0A080E3
:102BA00016F4807F40F0BA8016F0400F00F0CB8022
:102BB0001C9B191D1C911B780596CDF810A00B9934
:102BC000039102920022019200933B462A46594605
:102BD0004046FFF7D8FD054622E00822C2E716F47A
:102BE000007F21D116F4807F42D116F0400F58D0DB
:102BF0001C9B191D1C911B7883EAE371A1EBE37107
:102C00000596CDF810A00B9803900292DB0F01936C
:102C100000913B462A4659464046FFF7B4FD05461B
:102C20000F9B01330F9364E61C9B073323F00703CC
:102C300003F108011C9159681B680846002913DB41
:102C40000896CDF81CA00B9C0694049200220592D5
:102C5000C90F0291009301903B462A4659464046CF
:102C6000FFF7DBFD0546DBE75B4261EB4100E7E791
:102C70001C9B191D1C911B6883EAE371A1EBE37196
:102C80000596CDF810A00B9803900292DB0F0193EC
:102C900000913B462A4659464046FFF774FD0546DB
:102CA000BEE716F0800F05D01C9B191D1C91B3F9CF
:102CB0000030A1E71C9B191D1C911B689CE71C9B05
:102CC0001A1D1C921B685A68126811921B680092A8
:102CD0007A1B0BEB05014046FFF700FE05449FE71A
:102CE0001C9B073323F0070303F108011C9108968E
:102CF000CDF81CA00B990691002104920591029138
:102D0000D3E90023CDE900233B462A4659464046F5
:102D1000FFF783FD054683E7856048001C9B191D6E
:102D20001C910596CDF810A00B99039102920022F8
:102D300001921B6800933B462A4659464046FFF7DE
:102D400022FD05466CE716F0800F04D01C9B191D70
:102D50001C911B8830E71C9B191D1C911B682BE7DD
:102D600016F002061DD001241C98031D1C9305F1CA
:102D700001093B462A4659460078C047A6B90F9B31
:102D800001330F934D46B4E502F101093B46594624
:102D90002020C04723464A465C1C9A45F4D8154675
:102DA000E2E701232A46F7E74A4606E0561C3B467F
:102DB00059462020C0472C463246651CA245F5D80E
:102DC0009146DCE71C9B1A1D1C92D3F800900B9BCC
:102DD000FBB94FF0FF324B4601E001330A46197848
:102DE00011B1511E002AF8D1A3EB090316F4806239
:102DF0000C9203D00B9A934228BF134616F002049C
:102E000009D00D94CDF838A00B9E2A460C9D9A4609
:102E10001FE00B9ADFE72A46254606E0541C3B4696
:102E200059462020C047334622465E1C9A45F5D8B5
:102E30002C4633460D94CDF838A00B9E0C9D9A4637
:102E400007E01E4609F10109541C3B465946C0479C
:102E5000224699F8000020B1002DF3D0731E002EF9
:102E6000EFD10D9C15465346DDF838A054B90F9BA1
:102E700001330F933DE5551C3B4659462020C04782
:102E800023462A465C1C9A45F5D81546EFE7DFF83D
:102E900020802DE5BD4208D37A1E3B4659460020CE
:102EA000C047284613B0BDE8F08F2A46F5E700BFBB
:102EB000AB2500080CB410B584B00A4606AC54F833
:102EC000043B0394009401460348FFF707FD04B058
:102ED000BDE8104002B07047A325000800B583B0DC
:102EE000009313460A4601460248FFF7F7FC03B079
:102EF0005DF804FBA3250008406820F0030070473C
:102F0000436803F003030B434360704708B5FFF7C2
:102F1000F3FFB0FA80F0400908BD406800F00100FE
:102F20007047436843F0010343607047436823F0F0
:102F3000010343607047406800F002007047436837
:102F400043F0020343607047436823F00203436089
:102F5000704708387047083070470844704710B50C
:102F60000446FFF7E8FF00B9FEE7206810BD38B55A
:102F70000446FFF7F0FF05462046FFF7BDFF011F9F
:102F80002846FFF7EAFF05462046FFF7BFFF00B1DE
:102F9000FEE7284638BD10B50446FFF7E8FF046099
:102FA00010BD10B50446FFF7F6FFFFF7C8FF204637
:102FB000FFF7B7FF10BD10B50446FFF7D8FFFFF7C6
:102FC000C3FF2046FFF7B2FF10BD4B1E0B4200D0DF
:102FD000FEE7084401384942084070474B1E0B4247
:102FE00000D0FEE7494208407047084401384B4290
:102FF00018404B1E0B4200D0FEE7704708B500B9E1
:1030000008BDFFF7E2FFB0F5803F03D20C2838BFC0
:103010000C20F5E70020F3E710B514469E46CB6878
:103020008A686BB16AB1D3609A600EEB441C0CF1F4
:103030000E0C00EB8C0CDCF804308B4202D010BD7F
:10304000FEE7FEE7CCF804209042F8D1221D00EB09
:1030500082025368012101FA0EF123EA0103536051
:10306000002BECD103690122A24023EA0203036191
:10307000E5E72DE9F0411F4603EB421C0CF10E0C75
:1030800000EB8C0CDCF8043083B105460C46164688
:1030900069B18B60C860D9600846FFF75CFF804665
:1030A0000421FFF7A2FF804502D0FEE7FEE7FEE71E
:1030B00007EB46130E3305EB83035C602A6901239B
:1030C00003FA06F10A432A61043605EB86056A68AD
:1030D000BB401A436A60BDE8F08110B50C46FFF7AB
:1030E0000BFF1034A04234BF0020012010BD2DE999
:1030F000F84307460C46FFF72EFF211FFFF72DFF71
:1031000005463846FFF7F8FE0646031BA3F10409FF
:103110002846FFF720FF80460421FFF766FF804521
:1031200000D0FEE704EB090304339E4200D0FEE723
:1031300049462846FFF7E4FE2846FFF7DDFE0B2848
:1031400000D8FEE721463846FFF7DAFE2846FFF7AB
:1031500028FF2846BDE8F88338B504460D46FFF73A
:10316000D5FE00B1FEE72846FFF7C6FE021D6368E4
:10317000134463602046FFF70EFF204638BD806091
:10318000C0600021016109E002EB41130E3300EB46
:103190008303586001321F2AF6DD0131092905DC5D
:1031A0000B1D00EB830300225A60F4E7704728B13F
:1031B000B0FA80F0C0F12000013870470020FBE732
:1031C00070B504460D4616467F2809D803460028E8
:1031D00004DB9C1000202860346070BDC31CF8E73D
:1031E000FFF7E5FF431FDC4084F020040638F2E7D8
:1031F00030B583B005460C460846FFF77DFE6A46AB
:1032000001A9FFF7DDFF009B019A21462846FFF741
:1032100030FF03B030BD70B506460C461546084673
:10322000FFF77BFE00B9FEE729462046FFF755FF72
:1032300000B970BD29462046FFF759FF05462046D4
:10324000FFF7A9FE2846FFF77AFE29463046FFF72A
:10325000CFFFEEE710B50C4651B102B9FEE7FFF71C
:10326000DAFF2046FFF7A7FE2046FFF774FE10BDE9
:103270000846FCE730B583B005460C460846FFF724
:103280003BFE6A4601A9FFF79BFF009B019A21467E
:103290002846FFF7C1FE03B030BD70B505460C46A9
:1032A0000846FFF748FE08B9204670BD2046FFF7E4
:1032B00056FE064618B1FFF730FE08B9FEE7FEE7F6
:1032C00031462846FFF7D6FF21463046FFF744FF38
:1032D0000446E9E770B505460C460846FFF747FE89
:1032E00040B10646FFF719FE70B12046FFF70EFE0B
:1032F00008B1FEE7FEE731462846FFF7BBFF31463F
:103300002046FFF729FF0446204670BD70B50646EB
:103310000C4615460846FFF700FE00B1FEE72946B9
:103320002046FFF7DAFE00B970BD29462046FFF7B8
:10333000DEFE0446FFF708FE21463046FFF7CAFFCF
:1033400001463046FFF754FFEEE770B504460D46E0
:1033500016467F2806D9FFF72AFF05380123834048
:10336000013B1C44324629462046FFF729FF70BD29
:10337000034690FAA0F0B0FA80F00BB94FF0FF309E
:103380007047F8B5044616460D6812682B1D00EB11
:10339000830358684FF0FF339340184011D10F4614
:1033A000206901354FF0FF33AB40184013D0FFF7D1
:1033B000DFFF05463860031D04EB8303586800B93E
:1033C000FEE7FFF7D5FF306000EB45100E3004EB51
:1033D00080046068F8BD0020FCE770B582B000236F
:1033E00001930093E1B104460E466A4601A93046B6
:1033F000FFF7ABFF019B092B16DC6A4601A92046AB
:10340000FFF7BFFF054660B1FFF776FDB04200D27F
:10341000FEE7009B019A29462046FFF7FDFD00E0EC
:103420000025284602B070BD0025FAE740F23C5066
:10343000704708207047F8B507460C461546FFF759
:10344000F8FF0421281AFFF7C9FD14F0030F28D153
:103450000546A0F10C024FF6F4739A4223D86FF0A0
:1034600003012046FFF779FD06462946FFF748FD90
:103470003046FFF756FD3046FFF766FD31463846C9
:10348000FFF7B6FE3046FFF786FD05460021FFF741
:1034900037FD2846FFF74AFD2846FFF750FD204636
:1034A000F8BD0020FCE70020FAE710F0030F05D17B
:1034B00010B50446FFF763FE204610BD002070479C
:1034C00070B505460E46FFF7F0FF0446FFF7AEFF66
:1034D000321A29182046FFF7AEFF204670BD10B5FE
:1034E0000446FFF7A3FF204410BD38B50446084644
:1034F0000421FFF783FD054601462046FFF76DFFD7
:1035000001462A462046FFF7A5FE38BD70B5C9B171
:1035100005460846FFF71DFD0446FFF7FEFC00B117
:10352000FEE766682046FFF73CFD21462846FFF788
:10353000B4FE01462846FFF7CDFE01462846FFF7B8
:1035400057FE00E00026304670BD2DE9F84F0546D5
:10355000144629B38946EAB10846FFF7FAFC074644
:10356000FFF705FD82463846FFF7C6FC0646504683
:10357000FFF7C2FC831903F1040B04212046FFF777
:103580003DFD8046B44200D9D8B33846FFF7C5FCAC
:1035900058B1FEE7FFF7BAFF00273846BDE8F88FBD
:1035A0001146FFF7A2FF0746F7E7464518D25046F7
:1035B000FFF7B3FC08B1C34512D221462846FFF7F6
:1035C00094FF07460028E8D02246B44228BF32467E
:1035D0004946FEF7FDFE49462846FFF797FFDCE720
:1035E000464506D3424639462846FFF78FFE4F46EA
:1035F000D3E739462846FFF76DFE3846FFF7DBFC78
:10360000F0E70027C9E70B4609B101685A50704737
:1036100011B103680433CA507047002343608360CC
:10362000033121F003010160704738B5044600689A
:103630000830FEF73DFE054690B1002201462046C7
:10364000FFF7E1FF626829462046FFF7E1FF616866
:1036500019B12A462046FFF7D6FF6560A3680BB173
:10366000284638BDA560FBE738B504460068083039
:10367000FEF71EFE054690B1002201462046FFF7E8
:10368000C7FFA26829462046FFF7BDFFA16819B110
:103690002A462046FFF7BCFFA56063680BB12846A9
:1036A00038BD6560FBE708B140687047704708B1F6
:1036B00080687047704703680433C85870470368D0
:1036C000C8587047F8B5074658B30C4659B3FFF7CA
:1036D000EAFF844220D038680830FEF7E9FD05464D
:1036E000C0B121463846FFF7EAFF06462A460146A2
:1036F0003846FFF78DFF324629463846FFF783FFED
:103700002A4621463846FFF77EFF2246294638469C
:10371000FFF77EFF2846F8BD3846FFF786FF0546CF
:10372000F8E70546F6E70D46F4E700283ED070B509
:103730000C460546FFF7B7FF844219D02846FFF72D
:10374000B6FF844223D021462846FFF7B8FF06463D
:1037500021462846FFF7AFFF044602463146284679
:10376000FFF756FF324621462846FFF74CFF70BD53
:1037700021462846FFF79FFF0146686020B10022DE
:103780002846FFF740FFF2E70023AB60EFE7214652
:103790002846FFF794FF0146A86020B10022284682
:1037A000FFF736FFE3E700236B60E0E77047F8B50B
:1037B00007460E46FFF777FF044607E021463846E6
:1037C000FFF7B3FF2046FEF78FFD2C464CB1214694
:1037D0003846FFF770FF0546002EEFD02046B04771
:1037E000F3E7F8BD38B50546FFF75DFF0146002455
:1037F00004E001342846FFF75EFF01460029F8D1B6
:10380000204638BD38B142680AB10020704783684D
:103810001BB1002070470120704701207047000055
:10382000024B9A6F42619867704700BF345B00207B
:103830004269014B9A677047345B002098B32DE9C9
:10384000F8430F4691468046002100F07CFB064677
:1038500000240CE05B68FB60B358384698473B7E19
:1038600013F0020021D113F0010F1AD10134D8F85E
:1038700004309C4214D204EB44039A0006EB830309
:10388000B1580029F2D09D68C5F3C0314945EDD14A
:10389000C5F30E05002DDDD03989A942E6D1D9E75F
:1038A0000120BDE8F883012070470120F9E710B539
:1038B00084B004460020019002900390019103928D
:1038C000029363682BB101A9204600F021FB04B0EC
:1038D00010BD0C220121204600F0EEFAF3E718B1EA
:1038E00008B500F0F7FA08BDFEE7006870474068C9
:1038F00070470089C0F30E00704700697047C068C8
:1039000070470000084B9B6F04E01A7E42F00102F2
:103910001A765B6933B15A688242F6D01A688242DD
:10392000F7D1F2E7704700BF345B002000281ADAB5
:10393000891A0029B8BF4942C0F30903642202FB77
:1039400001F1B1FBF3F1C0F30952C0F3892302EB9B
:1039500082025000884228BF084603EB83035B00C5
:10396000984238BF1846704770B50446456AC66A23
:1039700032462946006BFFF7D9FF206332462946BD
:10398000E06BFFF7D3FFE06332462946A06BFFF7F9
:10399000CDFFA06332462946206CFFF7C7FF2064A5
:1039A00070BD000008B50A48012380F8B030B83077
:1039B000FFF779FE28B1064BD3F8B40001F01CFEE6
:1039C00008BD034BD3F8B40001F048FDF8E700BF91
:1039D000345B002070B5054643682BB11C48FFF7E7
:1039E00062FE044600260FE08368002BF6D1002615
:1039F000304670BD94F84E3013F0010F0BD12146C4
:103A00001348FFF758FE0446002CF1D0AC42F6D024
:103A1000636B002BEEDB22682B689A42EFD1636860
:103A2000002BECD06A689342E9D121460848FFF7A1
:103A30007CFE63690BB1204698472046FEF754FC94
:103A4000FFF7B0FF0248FFF72EFE04460126DBE732
:103A5000EC5B002010B5044690F8543013F00103DD
:103A600009D1B0F8442032B14FF6FF718A4202D03A
:103A7000013AA0F84420B4F84420A2B9E26B02B1A4
:103A80008BB121461448FFF750FEFFF78BFF2369E7
:103A90000BB12046984763690BB1204698472046F2
:103AA000FEF722FC17E0226C52426263E26B92B195
:103AB00013B9A16B4942616383F0010394F8541078
:103AC00063F3000184F85410636AE16A6162E3629F
:103AD000236B2263E36310BDEC5B002038B54548DF
:103AE00090F8B13083F0010380F8B130B830FFF7BF
:103AF000DAFD04463DE02046FFF736FFE3680BB1F0
:103B00002046984794F8543043F0040384F8543026
:103B10002046FFF75FFF636B002B21DB226B934294
:103B200000DD6263236A204698470546A36A834204
:103B30000ED0A062636813B10146206898472D4BF0
:103B400093F8B03023B9A36813B1294620469847AB
:103B5000284B93F8B0301BB9626B236B9A423DDA65
:103B6000244B93F8B030002B3CD02348FFF79BFD4B
:103B70000446002C3CD0206DFEF796F8636B03449E
:103B80006363FEF77DF820651A4A002382F8B0309F
:103B900094F85430C3F3400392F8B1209342DFD03D
:103BA00094F8543062F3410384F85430DBB213F0DC
:103BB000040FB0D1636B002BADDB94F84E3013F0E3
:103BC000010F98D1A369002B95D020469847636ACE
:103BD00003446362E36A0344E3628CE72046FFF731
:103BE00039FFBDE721460448FFF765FD0446C0E7FD
:103BF00038BD00BF345B0020EC5B00202DE9F041B4
:103C000005460F4616461948FFF74DFD04464FF08E
:103C1000000809E062680BE0BA420FD077B1214694
:103C20001248FFF748FD0446E4B1002EF2D0A26826
:103C30002368AB42F0D0002DF1D1EDE721460B48CF
:103C4000FFF773FD63690BB1204698472046FEF7E6
:103C50004BFBFFF7A7FE0548FFF725FD04464FF095
:103C60000108E1E74046BDE8F08100BFEC5B0020C1
:103C700010B582B004464FF4806300930023026BBA
:103C80001946406B02F01EFCE36A626A9B1A03FB52
:103C900000F002EBA02002B010BDF0B583B00446E6
:103CA0000D4616461F464FF4806300930023026BB7
:103CB0001946406B02F006FC089B00933B463246D7
:103CC000294602F00BFBE36A626A9B1A03FB00F0D1
:103CD00002EBA02003B0F0BD10B50A4C58212046DD
:103CE000FFF79BFC00222121074801F07FFB44F8ED
:103CF000040CFFF757FE002304F8083C04F8073CC7
:103D000010BD00BFEC5B0020DD3A000810B5044692
:103D100058220021FEF7F1FB4FF4FA7323630023CE
:103D200063626423E3620123A4F84430044B2362FA
:103D300094F84E3043F0010384F84E3010BD00BFBC
:103D4000713C000838B505462248FFF76EFC002894
:103D500038D0044658222946FEF73AFB2B68AB427E
:103D600031D01D4B93F8B12094F8543062F34103E5
:103D700084F85430FDF784FF206594F84E3013F03A
:103D8000010F1BD0A3693BB120469847636A0344E7
:103D90006362E36A0344E3622046FFF7E5FD6B6874
:103DA0009BB12046FFF716FE636813B1616A206875
:103DB0009847A36813B1616A20469847FFF7F2FD60
:103DC000204638BDFEE72460CBE7AB68002BE8D186
:103DD000EAE700BFEC5B0020345B002008B500225E
:103DE000FFF70CFF08BD000038B504460D460A4831
:103DF000FFF759FC014603E00748FFF75CFC01466A
:103E000039B10B68A342F7D14B68AB4201D0002D0A
:103E1000F2D1084638BD00BFEC5B002042F21073BF
:103E2000984201D942F2F67042F21073994201D9D8
:103E300042F2F67142F210739A4201D942F2F672DE
:103E40000530094BA3FB000C481DA3FB0010C00864
:103E50000532A3FB0232D208800200EB025000EBD5
:103E6000DC0000F100407047CDCCCCCC00B583B075
:103E70004FF48063009340F2512300221146FFF774
:103E80000CFF03B05DF804FB426B036B9A4201DB4D
:103E9000C06A7047406A704700B583B0B0F94C30D3
:103EA0000093B0F94A30B0F94820B0F94610FFF756
:103EB000F4FE03B05DF804FB10B504460023436034
:103EC0008160C26002FB01F0FEF7F2F9206000B1F0
:103ED00010BDFEE710B50446006818B1FEF704FAFD
:103EE0000023236000236360A36010BD38B504463F
:103EF0000D46C16805FB01F10068FEF7FFF930B11E
:103F00002060A5606368AB4200D9656038BDFEE7FC
:103F100038B5036893B104460D46436881688B4207
:103F20000DD023686068E268294602FB0030FEF786
:103F30004FFA636801336360012038BDFEE7013149
:103F4000FFF7D4FFEDE743688B4206D903681BB146
:103F5000C06801FB00307047FEE7002070478368AF
:103F600002689B1A03EBD3734FEA630C02EB630204
:103F7000406800EB63000B689B1A4A68121A0CFB3E
:103F80000CFC02FB02F203FB03239C4501D301203E
:103F9000704700207047016042608360009BC360EF
:103FA000704703680B44013B8360704743680B44D0
:103FB000013BC3607047836802689A1AC36840680F
:103FC000181A013002FB0000704703685B1A036097
:103FD00083680B44836043689B1A4360C36813443F
:103FE000C360704703680B44036083680B448360BD
:103FF000436813444360C3681344C360704770B49C
:1040000014680B689C42B8BF1C46046055684B6836
:104010009D42B8BF1D46456093688E68B342A8BFF5
:1040200033468360D268C9688A42A8BF0A46C26024
:104030009C4203DC954204DC012000E0002070BCBF
:1040400070470020FBE710B413680C68A342A8BFB8
:104050002346036053684C68A342A8BF23464360CD
:1040600093688C68A342B8BF23468360D368CA684C
:104070009342B8BF1346C3605DF8044B7047F0B578
:1040800085B004460D4608682168884274DBA36841
:10409000984274DC6E686768BE4272DBE0688642F4
:1040A00071DC002A71DD5B1A013303EBD3735E1000
:1040B000C01B013000EBD07040108642A8BF0646FE
:1040C000B24200DC164600913144029163680193CC
:1040D00033440393002229466846FFF7D0FF50B1CE
:1040E000029B33440293039B33440393294668465F
:1040F000FFF735FF41E0E3689A1B0192039300222A
:1041000029466846FFF7BBFF50B1029B3344029338
:10411000019B9B1B019329466846FFF720FF2CE07B
:10412000A3689A1B00920293002229466846FFF773
:10413000A6FF50B1009B9B1B0093019B9B1B01930F
:1041400029466846FFF70BFF17E063680193334485
:104150000393002229466846FFF791FF08B9012022
:104160000BE0009B9B1B0093039B33440393294666
:104170006846FFF7F4FE00E0002005B0F0BD002027
:10418000FBE70020F9E70020F7E70120F5E70268E8
:104190008B689A420DDC82680B689A420BDB42689E
:1041A000CB689A4209DCC2684B689A4207DA002061
:1041B00070470020704700207047002070470120A2
:1041C00070472DE9F04182B00C46036809688B42C4
:1041D00033DB06461546426861688A4231DB8768F0
:1041E000A1688F422FDCD0F80C80E16888452CDC78
:1041F0000DB9012022E0009301922A46694620462B
:10420000FFF73DFFD0B17368009701932A466946D6
:104210002046FFF734FF88B133680093CDF804805F
:104220002A4669462046FFF72AFF38B100972A46FA
:1042300069462046FFF723FF00E0002002B0BDE8FA
:10424000F0810020FAE70020F8E70020F6E72DE9EA
:10425000F04385B006460C46154611462046FFF74A
:1042600096FF002878D0002229462046FFF7A9FFB4
:10427000002874D1A1682068A1EB000EE368626891
:10428000A3EB020C6B689F1A002F63DD0090019274
:104290000291039304AB13E90F0086E80F0001209D
:1042A000EA686368D31AACEB0303002B14DDE16802
:1042B0008A4211DA216800910192A16802911A44A0
:1042C000039200F1010C06EB001704AB13E90F0099
:1042D00087E80F004FFA8CF062686B689A42B8BFAB
:1042E0001A469446E768EB689F42A8BF1F46A7EBB3
:1042F00002082B682268991A002912DDB8F1000F14
:104300000FDD0092CDF804C00293039700F101097C
:1043100006EB001804AB13E90F0088E80F004FFA12
:1043200089F0AA682368D31AAEEB0303002B0EDDD5
:104330000092CDF804C01A4402920397441C06EB85
:10434000001604AB13E90F0086E80F0060B205B059
:10435000BDE8F0830020A3E74FF0FF30F7E700202F
:10436000F5E72DE9F04782B087680B689F423FDB95
:1043700080460C461646D0F80C904B6899453CDBBD
:1043800003688A6893423ADC4268C9688A4238DC2A
:104390000EB900252DE00093019232466946204671
:1043A000FFF76DFE054608B1002522E0D8F804307D
:1043B00000970193324669462046FFF760FE824629
:1043C000B8B9D8F800300093CDF804903246694669
:1043D0002046FFF754FE054608B1554609E0009710
:1043E000324669462046FFF74AFE10B9012500E033
:1043F0000125284602B0BDE8F0870125F9E701252F
:10440000F7E70125F5E730B5023A132A00F28D816E
:10441000DFE812F04F0063006F007A009400A600FE
:10442000BA001400D500DD00F40003010B012201E5
:104430003101390150015E0166017D018268046825
:10444000121B013202EBD2748A680D68521B02F112
:10445000010C0CEBDC7C4FEA6C0CCCEB640CC268FE
:104460004468121B013202EBD274CA684D68521BB9
:1044700002F1010E0EEBDE7E4FEA6E0ECEEB640E05
:10448000026894444268724488680C68001B00F11A
:10449000010EC8684C68001B013063440B60039C2C
:1044A00022444A607344013B8B600244013ACA6073
:1044B00030BD82680468121B013202EBD2748A6834
:1044C0000D68521B02F1010C0CEBDC7C4FEA6C0C0A
:1044D000CCEB640C4FF0000ED2E782680468A2EBCC
:1044E000040C8A680C68121BACEB020C4FF0000E37
:1044F000C6E7C2684468121BCC684D68641BA2EB17
:10450000040E4FF0000CBBE782680468121B0132F6
:1045100002EBD2748A680D68521B02F1010C0CEB9D
:10452000DC7C4FEA6C0CCCEB640CC2684468121B58
:10453000CC684D68641BA2EB040EA1E78268046896
:10454000A2EB040C8A680C68121BACEB020CC2686C
:104550004468121BCC684D68641BA2EB040E8FE705
:10456000C2684468121B013202EBD274CA684D68FB
:10457000521B02F1010E0EEBDE7E4FEA6E0ECEEB09
:10458000640E4FF0000C7BE782680468A2EB040C19
:104590008A680C68121BACEB020CC2684468121BE0
:1045A000013202EBD274CA684D68521B02F1010E4F
:1045B0000EEBDE7E4FEA6E0ECEEB640E60E7CA684D
:1045C0004C68D24302EB040E4FF0000C58E78268AF
:1045D0000468121B013202EBD2748A680D68521B08
:1045E00002F1010C0CEBDC7C4FEA6C0CCCEB640CA4
:1045F000CA684C68D24302EB040E41E78268046843
:10460000A2EB040C8A680C68121BACEB020CCA68A3
:104610004C68D24302EB040E32E7C2684468121BB6
:1046200002F1010E4FF0000C2AE782680468121BA9
:10463000013202EBD2748A680D68521B02F1010C40
:104640000CEBDC7C4FEA6C0CCCEB640CC26844686D
:10465000121B02F1010E13E782680468A2EB040C3E
:104660008A680C68121BACEB020CC2684468121B0F
:1046700002F1010E04E78A680C68D24302EB040CD5
:104680004FF0000EFCE68A680C68D24302EB040C83
:10469000C2684468121B013202EBD274CA684D68CA
:1046A000521B02F1010E0EEBDE7E4FEA6E0ECEEBD8
:1046B000640EE5E68A680C68D24302EB040CC2681B
:1046C0004468121BCC684D68641BA2EB040ED7E64D
:1046D00082680468121B02F1010C4FF0000ECFE655
:1046E00082680468121B02F1010CC2684468121B44
:1046F000013202EBD274CA684D68521B02F1010EFE
:104700000EEBDE7E4FEA6E0ECEEB640EB8E68268EC
:104710000468121B02F1010CC2684468121BCC68C9
:104720004D68641BA2EB040EAAE64FF0000EF4469F
:10473000A6E600002DE9F04F85B00446164600932A
:104740000E9F9DF83CB0884611B9B2F5807F7BD0B2
:1047500022683B68D21A2260636879685B1A6360DA
:10476000B8F1000F74D0614BDB6E434548D0B8F50B
:10477000616F7DDDA8F56165DFF874A18AFB052313
:104780004FEAE579C9EBA30909F1010301936FF041
:10479000090303FB09550FFA89F001F059FD029056
:1047A000BDF9040001F054FD039009F15A0000B274
:1047B00001F04EFD8146019B03F15A0000B201F069
:1047C00047FDC5F10A01039A05FB02F2029B03FBB8
:1047D00001228AFB02C3D217C2EBA302434B1A6722
:1047E00000FB05F509FB01558AFB051AED17C5EB22
:1047F000AA055D6752111A676D115D67C3F86C8079
:1048000023686268B6F5807F3AD0BBF1000F51D0C3
:1048100003FB06F6009B02FB03F31A463348416F85
:1048200006FB01F1036F02FB13113D6805EBA14587
:104830002560016F436F02FB03F306FB01337A68C7
:1048400002EBA343636010E0B3F5807F80D10CE0FE
:1048500006FB02F2396801EB22212160009A02FB7B
:1048600003F37A6802EB2323636005B0BDE8F08FA1
:10487000B8F1000F01DB45467EE708F561657BE78F
:104880000099B1F5807FC0D11848416F03FB01F159
:10489000056F02FB15113D6805EBA1252560056F2D
:1048A000416F01FB02F203FB05237A6802EBA323AD
:1048B0006360DAE70D4D696F03FB01F1286F02FBBE
:1048C000101106FB01F1386800EBA1402060286F51
:1048D000696F01FB02F203FB0023009A02FB03F362
:1048E0007A6802EBA3436360BFE700BF345B00203C
:1048F0006766666610B582B00346C46894E8030034
:1049000002AA02E90300184600F098FD2046FDF7D0
:10491000EBFC0198009B984702B010BD2DE9F843CD
:1049200006460F46002000F095FE04464FF00008B2
:1049300000E02C46D4B1204600F08CFE0546A2686B
:104940000C4B9A42F5D1D4F80C90D9F80030B34210
:10495000EFD1D9F80430BB42EBD1204600F06EFD18
:104960004846FDF7C1FC4FF00108E2E74046BDE8CC
:10497000F88300BFF548000810B590F808C0BCF1F6
:10498000FF0F0CD004684FEA8C0E00239C451CD905
:1049900004EB0E00C05C884212D00133F6E70468D5
:1049A000002304EBC30C54F8330078B1007888423C
:1049B00001D00133F5E7DCF804301360012005E095
:1049C00054F823301360012000E0002010BD08B52A
:1049D0000C220021FDF791FD08BD10B50446037AB5
:1049E000FF2B05D10C2200212046FDF786FD10BDCE
:1049F0000068FDF779FCF5E72DE9F0410746007AFC
:104A0000FF2836D00D46B0B3D7F8008008EB8006FB
:104A1000002398422BD9F25CAA4201D00133F8E777
:104A2000013800EB8000FDF743FC044630B33860EA
:104A3000387A0138C0B23872800000231A4600E08C
:104A40000133397A99420DD3F15CA942F8D058F874
:104A5000231044F82210811816F803C004F801C08E
:104A60000132EDE74046FDF73FFC012004E0002065
:104A700002E0002000E00020BDE8F0810020FBE71C
:104A800070B582B00C460192017AFF293ED00546EE
:104A900004B9FEE7006878B14FEA810C4B1E002B89
:104AA0000ADB00EB0C02D25CA24201D0013BF6E72C
:104AB000019A40F8232029E0013101EB8101FDF743
:104AC0001DFC064610B328602B7A00EB8302013BE5
:104AD00003E0191DD05C5054013B002BF9DA2B7A0E
:104AE0000133DBB22B725A1E02EB8303F4542B7A90
:104AF00003F18043013B019A46F82320A1087B2C57
:104B000006D86B6801228A4013436B6002B070BD07
:104B10001F21F6E708B5FFF72FFF08BDF8B50446DB
:104B20000F4615461E4614220021FDF7E6FC2760BD
:104B300035B1A560E660069B2361079B6360F8BD05
:104B4000004DF6E7713C0008007AB0FA80F04009A9
:104B500070470000FF2812D058B182280AD97D3052
:104B6000C0B2094B1B6B63B1074A926A904204D3EF
:104B700000207047054B185C7047185C70473F2059
:104B800070470020704700BF345B00208CA50208EE
:104B900000B583B00A4601910121FFF771FF03B010
:104BA0005DF804FB00B583B00A4601910221FFF7CE
:104BB00067FF03B05DF804FB00B583B00A460191BE
:104BC0000721FFF75DFF03B05DF804FB00B583B07C
:104BD0000A4601916821FFF753FF03B05DF804FB1B
:104BE00000B583B00A4601916921FFF749FF03B080
:104BF0005DF804FB00B583B00A4601911021FFF770
:104C00003FFF03B05DF804FB00B583B00A46019195
:104C10001121FFF735FF03B05DF804FB00B583B049
:104C20000A4601911221FFF72BFF03B05DF804FB48
:104C300000B583B00A4601911321FFF721FF03B0AD
:104C40005DF804FB00B583B00A4601911421FFF71B
:104C500017FF03B05DF804FB00B583B00A4601916D
:104C60001521FFF70DFF03B05DF804FB00B585B01B
:104C7000019100230393ADF80C100B0C8DF80E304E
:104C8000039A1C21FFF7FCFE05B05DF804FB00B59C
:104C900083B00A4601911D21FFF7F2FE03B05DF8D3
:104CA00004FB00B585B0019100230393ADF80C100F
:104CB0000B0C8DF80E30039A2321FFF7E1FE05B0AF
:104CC0005DF804FB00B583B00A4601912821FFF787
:104CD000D7FE03B05DF804FB00B585B00191002359
:104CE0000393ADF80C100B0C8DF80E30039A3121A4
:104CF000FFF7C6FE05B05DF804FB00B583B00A46B9
:104D000001913221FFF7BCFE03B05DF804FB00B552
:104D100083B00A4601913021FFF7B2FE03B05DF87F
:104D200004FB00B583B00A4601913421FFF7A8FEC9
:104D300003B05DF804FB00B583B00A46019135214C
:104D4000FFF79EFE03B05DF804FB00B583B00A4692
:104D500001913821FFF794FE03B05DF804FB00B524
:104D600085B0019100230393ADF80C100B0C8DF866
:104D70000E30039A3921FFF783FE05B05DF804FB7E
:104D800000B583B00A4601913A21FFF779FE03B0DE
:104D90005DF804FB00B583B00A4601913B21FFF7A3
:104DA0006FFE03B05DF804FB00B583B00A460191C5
:104DB0003C21FFF765FE03B05DF804FB00B583B04E
:104DC0000A4601914121FFF75BFE03B05DF804FB49
:104DD00000B583B00A4601914221FFF751FE03B0AE
:104DE0005DF804FB00B585B0019100230393ADF895
:104DF0000C100B0C8DF80E30039A3D21FFF740FE8E
:104E000005B05DF804FB00B583B00A4601913E2170
:104E1000FFF736FE03B05DF804FB00B585B00191E5
:104E200000230393ADF80C100B0C8DF80E30039A91
:104E30004521FFF725FE05B05DF804FB00B583B002
:104E40000A4601914621FFF71BFE03B05DF804FB03
:104E500000B583B00A4601914821FFF711FE03B067
:104E60005DF804FB00B585B0019100230393ADF814
:104E70000C100B0C8DF80E30039A4C21FFF700FE3E
:104E800005B05DF804FB00B583B00A4601915021DE
:104E9000FFF7F6FD03B05DF804FB00B583B00A46EA
:104EA00001915121FFF7ECFD03B05DF804FB00B563
:104EB00085B0019100230393ADF80C100B0C8DF815
:104EC0000E30039A5221FFF7DBFD05B05DF804FBBD
:104ED00000B585B0019100230393ADF80C100B0CC5
:104EE0008DF80E30039A5821FFF7CAFD05B05DF822
:104EF00004FB00B583B00A4601915A21FFF7C0FDBB
:104F000003B05DF804FB00B583B00A4601915C2153
:104F1000FFF7B6FD03B05DF804FB00B583B00A46A9
:104F200001915E21FFF7ACFD03B05DF804FB00B515
:104F300083B00A4601910C21FFF7A2FD03B05DF892
:104F400004FB00B583B00A4601912D21FFF798FDBF
:104F500003B05DF804FB00B583B00A4601916121FE
:104F6000FFF78EFD03B05DF804FB00B583B00A4681
:104F700001916221FFF784FD03B05DF804FB00B5E9
:104F800083B00A4601916421FFF77AFD03B05DF812
:104F900004FB00B583B00A4601916621FFF770FD5E
:104FA00003B05DF804FB034601305A783A2A00D07A
:104FB0007047981CFCE72DE9F04F87B00446039139
:104FC00015461E468368D3F808A019685A68D3F8B6
:104FD0000C904068D0F804808A4560D392455ED832
:104FE000A2EB0A0303F1010A511AA1EB0A010131F4
:104FF000B8F1FF3F0AD055450CD82A4649440398DA
:10500000FDF7E6F935604FF000085CE0AA45F2D202
:105010001D46F0E752464944039F3846FDF7D8F94C
:105020006068D0F81CB0A3685A6800230132216878
:10503000D84700230593A5EB0A0BC34511D9606837
:10504000D0F8148005AB00935B463A465244216881
:10505000C0478046059B5344AB4228BF2B46336074
:105060002EE0606843691F4605AB009343464A46FD
:105070002168B8478046A268536801331360A1686D
:105080000B68059A1344013B4B605A4528BF5A46AA
:1050900092B2494603985044FDF79AF9DAE7D0F8FE
:1050A0001CB0002352462168D847A84514D2606836
:1050B000D0F8148000962B46039A2168C04780469A
:1050C000B8F1000F04D1A268936831680B44936073
:1050D000404607B0BDE8F08FB9F1000F1DD00023A6
:1050E00005936068D0F814B005AB009343464A4678
:1050F0002168D8478046A368C3F800A0A1680B6860
:10510000059A1344013B4B60AA4228BF2A463260ED
:1051100049460398FDF75CF9D2E7D4F80890404679
:10512000FDF7C6F8C9F80C00A368D3F80C90B9F1E4
:10513000000FD4D1FEE7000008B504210148FEF7B6
:105140006CFA08BDD05C002038B504464068C8B190
:105150000369CBB121689847054663685B685BB11A
:10516000A2684AB1B3F1FF3F03D0D06808B1FDF7A0
:10517000BBF8A068FDF7B8F8002323606360A36064
:10518000284638BD0B25FBE70925F9E730B585B082
:1051900084461C460BB100232360DCF80400B0B148
:1051A0004569B5B10023039343685BB903AB009332
:1051B00013460A46DCF80010A8470CB1039B236095
:1051C00005B030BD03AB6046FFF7F5FEF5E70B20F9
:1051D000F6E70920F4E730B583B0044640680028BC
:1051E00042D01346C569002D40D04268002A36D00F
:1051F000012B14D0022B24D00BB1002032E0A26886
:105200009160A1688A680868824202D349688A422C
:105210002ED96068C56900232168A84722E0A268EA
:1052200093680B449360A3689A6819688A4202D312
:105230005B689A421ED96068C56900232168A84747
:1052400010E00A462168A84760B96068036A01AAAD
:105250002168984730B9A368019A9A6002E00A462B
:105260002168A84703B030BD0B20FBE70920F9E710
:105270001846F7E70020F5E70346406848B110B547
:10528000046A54B1426862B19B689B680B6000205D
:1052900010BD00230B600B20704700230B6009201A
:1052A000F6E70A461968A047F2E7000010B5044681
:1052B0000848FEF7F8F9014603E00648FEF7FBF957
:1052C000014621B10B681A78A242F6D11946084668
:1052D00010BD00BFD05C0020002947D0F8B50546BE
:1052E00016460F460878FFF7E1FF044600283FD036
:1052F000836813B1984700283CD0E368002B3BD06B
:105300006C606368B3F1FF3F10D03846FFF74BFE87
:105310000146E368324620469847431E13F1030FC7
:105320002CD8286063681BB90020F8BD2D60F9E710
:105330001020FCF7C7FFA86060B16368B3F1FF3FBE
:1053400009D04FF0FF330360AB686FF001025A6081
:105350000020EAE7FEE77B68C360AB6800201860C6
:10536000AB689860AB68BA685A60DEE70B2070479C
:105370000320DAE70120D8E70920D6E70C20D4E79C
:1053800010B50446FDF7E0F858B1235C2E2B05D08C
:105390002F2B08D05C2B08D00138F5E7431CE01810
:1053A00000E0034810BD0248FCE70148FAE700BFEF
:1053B00000E3020808B5064B0022C3F89020D3F89A
:1053C000A8301BB1024AD2F8AC00984708BD00BF14
:1053D000345B002010B504464068FCF765FC236888
:1053E000834201D9181A10BD0020FCE7F8B5064623
:1053F0000F4615460F48FEF718F9C8B10446076076
:1054000086604FF0FF330361037D6FF30003037584
:10541000FCF736FC6060E560237D43F002032375F2
:10542000054B012283F88F20FFF7C4FF2046F8BD0B
:10543000FEE700BFB45B0020345B002038B50446B3
:10544000054D01462846FEF770F90123AB7320464F
:10545000FCF74AFF38BD00BFB45B002020B1037DDC
:1054600043F0010303757047FEE7000038B5037D84
:1054700013F0010F02D00025284638BD0446FFF77F
:10548000A9FFE8B92569002D01DD6B1E2361FCF73A
:10549000F7FB6060A36813B10DB120469847012562
:1054A0000A4B93F88E30002BE6D12369002BE3D111
:1054B000237D13F0020F05D02046FFF7BFFFDBE787
:1054C0000025EDE72046FFF7C9FFD5E7345B002054
:1054D00070B5474B93F89430002B40F08680444BD6
:1054E000012283F8942093F88C302BB9404B002292
:1054F00083F89420012579E0FCF7C2FB0646F8B951
:105500003B4AD2F8A4300133C2F8A430642B17D937
:1055100013460022C3F8A42012E02C467CB1214699
:105520003448FEF7C8F805462046FFF79FFF0028DD
:10553000F3D02F4BB3F88E300BB92C46EEE754B1B5
:105540002B48002380F88E3080F88F308030FEF7B3
:10555000AAF80446E2E72748FEF7A5F804464FF00C
:10556000FF3504E021462348FEF7A5F8044654B170
:10557000237D13F0010FF5D12046FFF72BFF854265
:10558000F0D90546EEE73046FCF78EFB184BD3F812
:105590009C200244C3F89C20D3F8A000FCF784FBB5
:1055A000B0F5FA7F18D3124AD2F89C30642101FB7F
:1055B00003F3B3FBF0F3DBB282F88D308B4212D8E9
:1055C000CB1ADBB20A4C84F88D300023C4F89C302F
:1055D000FCF756FBC4F8A000054BC3F8905000221E
:1055E00083F8942002E00023ECE70125284670BDF3
:1055F000345B0020B45B002038B108B5027D6FF346
:1056000000020275FFF7D6FE08BDFEE740B110B5F7
:105610000446FCF735FB2368C31A013B636010BDE9
:10562000FEE7000008B5044B83F88C0000B908BD04
:10563000FFF7C0FEFBE700BF345B002008B5182170
:105640000348FDF7EAFF0120FFF7ECFF08BD00BFAC
:10565000B45B002008B520B101460448FEF72BF8E2
:1056600008BD0248FEF71FF8FAE700BFB45B002050
:1056700030B3A0F59C42B2F5A44F23D300F17F4292
:1056800002F1FF125D2A1FD9A0F540523F2A1DD911
:10569000A0F53A527F2A1BD9A0F547522F2A19D9D3
:1056A000A0F54152BF2A17D9A0F57E42103A0F2A21
:1056B00014D9A0F57E43303B1F2B11D90020704731
:1056C000002070470120704701207047012070477B
:1056D000012070470120704701207047012070476A
:1056E00001207047037890F90020002A0DDA03F0BA
:1056F000E002C02A0BD003F0F002E02A09D003F048
:10570000F803F02B07D000207047012070470220DB
:10571000704703207047042070477F284ED982B01D
:10572000B0F5006F13D2C0F3841343F0C0038DF8BB
:10573000043000F03F0040F080008DF805000023A9
:105740008DF806308DF80730019802B07047B0F53B
:10575000803F15D2C0F3033343F0E0038DF80430EB
:10576000C0F3851343F080038DF8053000F03F004F
:1057700040F080008DF8060000238DF80730E3E745
:10578000B0F5881F18D2C0F3824343F0F0038DF8C0
:105790000430C0F3053343F080038DF80530C0F3C7
:1057A000851343F080038DF8063000F03F0040F091
:1057B00080008DF80700C7E70020C6E7704700B5F6
:1057C00083B08646002301938C4669B1DCF8002043
:1057D0001EF802001EF90230002B08DB0132CCF863
:1057E000002003B05DF804FB0DF1040CEEE700F0BF
:1057F000E003C02B0CD000F0F003E02B1BD000F036
:10580000F803F02B36D00132CCF800200020E8E776
:10581000830103F4F863511CCCF800101EF801104A
:1058200001F0C000802852D101F03F01C8180232B7
:10583000CCF80020D5E703039BB2511CCCF8001034
:105840001EF8011001F0C000802842D1890101F446
:105850007C611944931CCCF800301EF8030000F062
:10586000C003802B37D100F03F0008440332CCF84E
:105870000020B6E7830403F4E013511CCCF80010B9
:105880001EF8011001F0C000802826D1090301F4A0
:105890007C311943931CCCF800301EF8033003F020
:1058A000C00080281BD19B0103F47C631944D31CE6
:1058B000CCF800301EF8033003F0C000802810D16F
:1058C00003F03F0008440432CCF8002089E70020B0
:1058D00087E7002085E7002083E7002081E700209C
:1058E0007FE700207DE7000070B582B006460D46D8
:1058F0000B68013B0B60002404E001382860013490
:10590000E4B26BB9032C13D828680B4B1B683044E6
:10591000984703460028F2D128680028EDD108E016
:105920002B680193054B1B6801A93046984700E09E
:10593000002002B070BD00BF240000201C00002029
:10594000F8B506460F460024254601E01C44013503
:10595000BD420AD23019335D3BB1054B1B689847F5
:1059600003460028F2D10123F0E72046F8BD00BF2E
:105970002400002070B582B006460D460024019434
:1059800005E0064B1B6801A9304698470134019B8E
:10599000AB42F6D3204602B070BD00BF1C00002011
:1059A00030B583B005460024019405E0064B1B6822
:1059B00001A9284698470134019BEB5C002BF5D1E7
:1059C000204603B030BD00BF1C0000202DE9F04F81
:1059D00087B00091019202939DF84830039300280C
:1059E00000F08A8080460378002B00F08880002930
:1059F00000F08B809DF8403013F0010F02D06FF063
:105A000060430293002705970497434B1B6805A941
:105A1000404698470446059B04934FF0FF3BB94628
:105A20003E463D4623E0019BF31A029A934236DD3F
:105A3000BB4634E00133DBB2384AD25C1AB194423F
:105A4000F8D1012300E000237BBB2846FFF710FEBE
:105A500098BB2046FFF70CFE78BB119B13B1BBF13E
:105A6000FF3F39D0059F049B0593D1462C4618F87B
:105A7000073033B3284B1B6804A9404698470546B6
:105A800009F1010A02462146009813F03EFB064444
:105A9000002801DD019B1E44BBF1FF3FC3D00A2C4F
:105AA00003D00D2C01D00023C6E757B9BBF1FF3F4F
:105AB00007D1119B2BB11E6003E0119B1E60059F57
:105AC000D146BBF1FF3F09D0039BD3B9119BFBB17A
:105AD000002119608B4614E01E60C3E7B9F1000F86
:105AE00007D00D2C01D0BB460BE00A2D01D0BB46E0
